:020000041800E2
:200000003C3CA5A5C3C35A5A02000000BFFFFFFFFFFFFFFFFFFFFFFFFFFFFFFF0003001817
:080020007411000000400318F8
:0A002C0000C00718FFFFFFFFFFFFF1
:2003000000C00000451000006D0C00006D0C000000000000000000000000000000000000D6
:200320000000000000000000000000000000000000000000000000000000000000000000BD
:2003400000000000000000000000000000000000000000000000000000000000000000009D
:2003600000000000000000000000000000000000000000000000000000000000000000007D
:2003800000000000000000000000000000000000000000000000000000000000000000005D
:2003A00000000000000000000000000000000000000000000000000000000000000000003D
:2003C000EFF3108072B67047002800D162B6704772B670478021044BDA680A4200D170471F
:2003E000DA680A43DA60F7E70014024007B5042201A900F0A4FC01980EBD0000014B986636
:200400007047C046001402408000016470470000064B07495A6B1140802252010A435A6377
:200420008022D96B52030A43DA63704700140240FF8FFFFF8023034A5B00516B0B43536353
:200440007047C046001402400349044A4B681A40034B13434B6070470010024008FFFF7F05
:20046000020000800349044A4B681A40034B13434B6070470010024008FFFF7F04000080F2
:2004800010B500F0BDFB0138FF3810BD10B52420FFF7ACFF10BD01380028FCD17047000056
:2004A0008022064B52059969054811439961996901409961596A0A435A6270470010024043
:2004C000FFFFFFEF022070470020704700487047020204000122084B196911431961196931
:2004E00091431961D9690A43DA618022596A92050A435A627047C0460010024003000020AD
:20050000022B03D898029023DB05C01870470000E0230F4ADB02D16910B50B43D3619023AA
:200520000020F021DB05186158619861D861094B89011A690A401A61A022920158610649C3
:200540009861DA61FFF760FF0122044B1A6010BD0010024000040048F102000000E100E007
:2005600013B56B460400D8710009FFF7C7FF01232407240FA34082691343836113BD13B5CE
:200580006B460400D8710009FFF7B8FF01231A002407240FA24041680A4203D01034A3403A
:2005A000836013BD8260FCE71B2818D004D8002808D007280FD070471F28FCD10A4B01226B
:2005C000996C02E01022084B996C91439964996C0A439A64EFE7044B2022996CF5E7024BF4
:2005E0004022996CF1E7C0460014024070470000F7B5002401271D4E33699BB20193019B2D
:2006000023413B4212D0356BA300DD40FF232D011B011D403B00A3402543EDB228007361CD
:20062000FFF7C2FFFF212800FFF7E0FF0134082CE5D10127019B23413B4213D0756BA300BC
:20064000203BDD40FF232D011B011D403B00A3402543EDB228007361FFF7A6FFFF21280055
:20066000FFF7C4FF0134102CE4D1F7BD0004014000DF704701DF704702DF704706DF704741
:2006800007DF704710B5EFF31084002C02D000F027FB10BDFFF7ECFFFBE710B5EFF31083A8
:2006A000002B02D000F070FA10BDFFF7E3FFFBE710B5EFF31083002B02D000F07BFA10BDF3
:2006C000FFF7DAFFFBE710B5EFF31083002B02D000F078FA10BDFFF7D3FFFBE710B5EFF3B2
:2006E0001084002C02D000F051FB10BDFFF7C6FFFBE7000010B50400FFF7ECFE2020640174
:20070000024B04401F3804431C6010BD00740140024A1368002BFCDA7047C04600000240E5
:20072000002310B59A4200D110BDCC5CC4540133F8E7000073B50E00017A9B024C06E40F71
:20074000050023430479E020240623430C07E40F64002343CC06E40F640223438C07240CFD
:2007600023434C07E40F8906E400C90F234389000B43711EC002090401400B433100481EC1
:20078000814109010B430B490B606B680A491B0A0B60130101221A43084B1A60FFF7B8FFBC
:2007A000074B32001B68286801A90193FFF7B8FF73BDC046900002409800024094000240FF
:2007C000A000024073B505000C0011269302134A1A43134B1A60082C12D8002C0FD0012254
:2007E000104B1A60FFF794FF0F4B22001B68694600930E4B28001B680193FFF791FF73BD0C
:20080000084B083C1E60FFF783FF074BA4B21B682B60064B1B686B600835DCE710000700DF
:200820009000024094000240A0000240A400024037B51500027A9B025406E40F23430479FE
:20084000240623431407E40F64002343D406E40F640223439407240C23435407E40FE40034
:200860002343E0249206D20F920013434A1EE4031205224013430A00541EA2415201134387
:200880000A4A136043680A4A1B0A13600A00016801A8FFF745FF019A064B1A602A010125ED
:2008A000054B15431D60FFF733FF37BD9000024098000240A800024094000240F8B50500D9
:2008C0000C00114B114F960233433B60042C10D8002C0DD02022013C2405264316433E607E
:2008E0002A680B4B1A6001220A4B1A60FFF710FFF8BD04CD064B043C1A601122054BA4B235
:200900001A60FFF705FFE1E72000300090000240A800024094000240F7B501928689050066
:200920000F00042E1AD8F4B2002E23D00026FFF747FDAA7B124B00909A6228003200EB7B8F
:200940002100B847A9892868091BEA7B019B89B2001998470098FFF737FDF7BD0268032357
:20096000100018401A4204D00424241A0126E4B2DDE70126034C3C1B63425C41A400D6E788
:20098000000002403504000010B5FFF789FD00230A4CE362FFF79AFDE060FFF793FD1E2349
:2009A000400018402061FFF78FFDF023C004DB03184081231843206010BDC04600000240FB
:2009C00010B5827843780A4914078B625307DB0FE40F007824041B0323430343D006C00FFC
:2009E000000592070343920913434B6010BDC0460000024010B5024A0249FFF78DFF10BDB7
:200A0000C50400003504000010B5024A0249FFF783FF10BDBD050000310500001FB56B46B6
:200A200000916C2118711B7A68468B43190040230B4369460B7200238A81CB73FFF7E4FFC3
:200A400005B000BD064B0122190010B5000610439031943308601A60FFF75AFE10BDC046EE
:200A6000000002401FB56B4600916C2118711B7A68468B43190040230B4369460B720023DE
:200A80008A81CB73FFF7B6FF05B000BD014B18707047C04674110000014B18787047C04641
:200AA00074110000014B58707047C04675110000014B18707047C0467511000010B50C0072
:200AC000FFF7F0FF2000FFF7F3FF10BD13B56B46DC1D200000F0FCF801232078184016BDFF
:200AE00070B50D00040000F0DBF82800A04700F0B6F870BD70B50E000500FFF761FC040094
:200B000000F0CEF800F0DFF83000A8470123064D20002B70FFF758FCFFF7D8FF0028FBD1FC
:200B2000287000F09CF870BD7511000070B50D0016000400FFF7B0FF32002900002803D09F
:200B4000200000F047F970BD200000F0F8F8FAE710B50223FFF796FD10BD10B50123FFF718
:200B600091FD10BD70B50D0016000400FFF794FF32002900002803D02000FFF7EEFF70BDBF
:200B80002000FFF7E5FFFAE707B5020C01AB1A70020A9870D970034819005A70FFF7AAFF50
:200BA00007BDC046290A000010B52021FFF775FD10BD000010B501000148FFF791FF10BD9B
:200BC000370A000010B501000148FFF789FF10BD7B0A000007B56A46034B009093806846EA
:200BE000FFF771FD07BDC0469F03000010B5FFF775FD10BD014B58787047C04675110000CC
:200C000013B501AC2000FFF7E5FF0120A378984016BD10B586B06B4607330293EB237F2452
:200C200002AA03938001AE3B0343107A2340A043034313720123100093819173D373FFF79F
:200C4000D9FE06B010BD10B5FFF7D4FE10BD10B5FFF7DAFE10BD10B5FFF796FE10BD13B59C
:200C6000FFF7C8FF00281AD1FFF7AAFB202104000120FFF7CEFFEB231F2201A80370CB3B6F
:200C80004370837893431A001E2313438370FFF797FE0120FFF706FF2000FFF795FB13BD0F
:200CA00010B5FFF7A7FF00280CD0FFF789FB002104000800FFF7ADFF0020FFF7F3FE20005F
:200CC000FFF782FB10BD10B50620FFF7BBFE10BD10B5010001220520FFF7C4FE10BD0000DA
:200CE00010B586B002913221022B00D0303902AC217101020398023B01906846007908438F
:200D000003907C20217AA2818143080048215A4253410143217203482100E373FFF7EAFE0A
:200D200006B010BD4F09000010B501000322C078FFF774FE10BD10B5FFF75CFE10BD7FB56A
:200D4000EB23029102A90B71039903020191694608797F211843039002AB1B7A8B431900B1
:200D60007D230B4302A90B7280235B000800CB818A81FFF79DFC07B000BD030010B51968B4
:200D800042790079FFF76EFE10BD000010B586B00292482202AC2271039AC90501926A4608
:200DA000C90D000308431179000208437F210390227AA3818A4311004C2200230A4304483D
:200DC00021002272E373FFF78BFE06B010BDC046470900007047002330B59A4200D130BD57
:200DE0009C000D5901330551F7E7F0B505000E001F0085B004680192AB882A689B18A34221
:200E000002D80020386019E020003100019A3C60FFF78CFE019B0422181903A9FFF786FE26
:200E2000019B04339BB2E418039B0133E4D1AA795300013BDBB2FF2B02D1002005B0F0BD51
:200E400099008959013BDBB20131F4D09200911933008C469C4501D10120EFE718000168EC
:200E60008058C94304338842F4D0C5E7F7B500AF79608179040068461300CA00821A9546E9
:200E80006E46CA0020003100FFF7AFFF051E04D03100A2797868FFF79EFFBD462800FEBD43
:200EA00097B56946827900AFD300CB1A9D46D20069463B000400FFF798FF002809D004227E
:200EC000A0793B68C000C018034BB9187B60FFF749FEBD4697BDC046494E564110B5FFF741
:200EE000CFFAFFF761FE10BD1FB5FFF7C9FA6A46102393810F3B02909373694601AA02A89D
:200F0000FFF7B4FF05B000BD1FB50400FFF7B8FA6A464023403093813F3B0290937321006C
:200F200001AA02A8FFF7A2FF04B010BD1FB50400FFF7A6FA6A468023803093817D3B029075
:200F40009373210001AA02A8FFF790FF04B010BD07B5FFF795FA6A46802380300090938028
:200F600068467D3B9371FFF79BFF07BDFEE770B505005024FFF7F4FA2800013CFFF7FFFAF8
:200F8000E4B23320FFF787FA002CF5D170BD1FB5102301206A460021FFF728FE6B4618886C
:200FA0005B88DB439BB2984209D16B46DB886A46DB4392889BB29A4201D105B000BD0020A6
:200FC000FBE7000010B586B001AC1423102122000120FFF70BFE210005234A880888D2431D
:200FE00092B290424FD1013BDBB20431002BF4D16178294A09070B0F0F215068884321780B
:20100000034353608B088907090A1B060B432179506B8907890B0B4361784906490F4902A0
:201020000B431E49084003435363916B237A89009B0989089B070B439363D36BA189DB0B2C
:201040004904490CDB030B43D363637914495A075B065B0F920C1B0213438868114A10407B
:2010600003438B600C4B10499A6B1140802292050A4307219A635A6C8A43110005220A4376
:201080005A6406B010BD0649064A8B681A4090239B011343E5E7C04600140240FFF13CC06A
:2010A00000740040FFC0FFFFFFFFFFC010B586B001AC1423102122000120FFF797FD210004
:2010C00000234A880888D24392B2904200D0FEE70233DBB204310A2BF3D16178224A090766
:2010E0000B0F0F21506888432178034353608B088907090A1B060B432179506B8907890B73
:201100000B4361784906490F49020B431749084003435363237A916B9B09980780239B05A5
:20112000034307200902090A0B439363D36BA189DB0B4904490CDB030B43D363516C637CF2
:20114000814303400B435364637909495A075B065B0F920C1B0288681343064A1040034342
:201160008B6006B010BDC04600140240FFF13CC000740040FFC0FFFF10B586B018231021E1
:201180006A460120FFF732FD694600234A880888D24392B2904200D0FEE70233DBB204314E
:2011A0000C2BF3D16B465978394A09070B0F0F215068384C8843034353606B461978506BD8
:2011C0008B088907090A1B060B43694609798907890B0B43694649784906490F49020B4317
:2011E0002D490840034353636B46197A906B8B09890689089B070B43284901400B438021B1
:2012000049030B4369469363D36B8989DB0B4904490CDB030B43D3636B460720516C5B7CE9
:20122000814303400B4353646B465B791C495A075B065B0F920C1B0288681343194A0240E6
:2012400013438B6008232268134323606B46164A9B8A934219D00CD8144A1B20934211D098
:20126000134A93420DD0082223689343236006B010BD104A934204D00F4A934201D00F4A73
:20128000EFE71320FFF773FEEDE70E20FAE7C0460014024000100240FFF13CC0FFFFEF0074
:2012A00000740040FFC0FFFF31280000031600000124000011320000314800000232000036
:2012C000C023194ADB05116A10B50B431362FFF75EFE164B984209D0154B984209D0033B2E
:2012E000FF3B984208D1FFF76DFE10BDFFF7DEFEFBE7FFF741FFF8E70E4B0F499A6B114003
:20130000802292050A4307219A635A6C8A43110005220A4309495A648B68094A1A409023A7
:201320009B0113438B60E0E700100240014100000242000000140240FFFFFFC0007400406A
:20134000FFC0FFFFF0B5464C89B0FFF741F8FFF77BF8FFF787F8A06C0027000AC0B2FFF7AE
:201360004DF8A36C3F4AA0201A4088231B061343A3640001FFF78FF8390038002764FFF7DD
:201380009DFBFFF768FC3800FFF780FBFFF767FC3800FFF7AFF9FFF7BBF83349334ACB69AD
:2013A0001A40A0239B011343CB61FFF789FFFFF72FF8FFF73FF8A0200001FFF76CF8FFF719
:2013C00009F8FFF763F8040005A8FFF7AFFDB8420FD0059B0093069B0193079BDAB2511E8A
:2013E0008A411B0AD3180293029B9F4215D3FFF7AFFD04A8FFF788FD002800D0049CFFF7C0
:2014000073FD002801D0FFF769FD236883F3088862B66368984709B0F0BDE8223B02039371
:20142000019B12069D183B02ED180F231F4202D12800FFF7B9FBE822009B120698188022BA
:201440000B4E3B02C01831005200FFF778FC80223100280052000137FFF77AFBBFB2C3E726
:1814600000140240FFFFFF4700040048FFC3FFFF771100004B60233840
:00000001FF
