:020000041803DF
:1040000000B800001D5203184D0700004D070000C6
:1040100000000000000000000000000000000000A0
:10402000000000000000000000000000C164031850
:1040300000000000000000004D070000E107000044
:104040004D0700004D0700004D0700004D07000020
:104050004D0700004D0700004D0700004D07000010
:104060004D0700004D0700004D0700004D07000000
:104070004D0700004D0700004D0700004D070000F0
:104080004D0700004D0700004D0700004D070000E0
:104090004D0700004D0700004D0700004D070000D0
:1040A0004D0700004D0700004D0700004D070000C0
:1040B0004D0700004D0700004D0700004D070000B0
:1040C000FEE7000038B500F0FDF9054600F03AFAC9
:1040D0000446002D15D0002C00D101E000F076FA46
:1040E00000F0C1F900BF684600F0CAF900F0DAF943
:1040F000002805D068460078842108400028F2D0C6
:1041000000BF002C01D100F0E9F900F0FBFD002C0C
:1041100001D100F023FA002D05D000F09FF9FF2017
:10412000013000F071F838BD0AE000BF084AD068DD
:10413000802302469A431A431146054AD16000BFC4
:104140000348C06880210840C0090028EDD17047AD
:104150000014024002480068401C01490860704792
:104160007C180000014600290CDB07480068CB06DC
:10417000DB0E01229A401040002801D00120704738
:104180000020FCE70020FAE700E200E010B5022082
:10419000FFF7E8FF002808D1FFF7E4FF002804D16B
:1041A0000420FFF7DFFF002800D001E000F00EFA46
:1041B00013488068FF2109020840000A114908706D
:1041C00000BF0F4A9068420052080123DB071A43E0
:1041D00011460B4A916000BF00F00AFB00F071F835
:1041E00007484038406B7A21084305494039486305
:1041F00000F076FD00F04AF800F0C6F910BD0000AE
:10420000401402400A180000401E0028FCD17047EC
:1042100010B500F0B9F900F095FB00BF0A4800683E
:10422000012109060840000E0028F7D100F00EF821
:1042300000F024FD04484038406B7A21884302494D
:104240004039486310BD00004014024000BF054AD9
:104250001068082302469A431146024A116000BFC3
:104260007047000040100240074841684807400F6F
:10427000042806D1F02008400009002801D10120BF
:1042800070470020FCE700000010024010B500203D
:1042900000F0E4FC10BD10B500F060F900F0C4F8C7
:1042A00000F0B4FA00F052FB00F0C4FA72B600F06D
:1042B000D1F800F0EDF86620FFF7A6FF00F00EF948
:1042C00010BD704772B6704710B50446602000F00C
:1042D00035FA10BD70B504462546E8780322294614
:1042E00000F048FA70BD10B5044603222146442070
:1042F00000F040FA10BD10B50446204600F02EFA3A
:1043000010BD10B50446204600F028FA10BD10B5C7
:104310000446204600F0D4F910BD70B50446254689
:104320006A792879296800F0D7F970BD10B504467C
:10433000204600F0C5F910BD00BFEFF3108108461C
:1043400072B67047002800D162B6704770B5054656
:104350000C4600F003F92046A84700F0BFF870BDF6
:10436000F8B504460D462D48007800283ED000BF21
:10437000EFF3108000280AD000F0F0F800F08DF87C
:104380002846A04700F097F800F0A8F845E0FFF7AE
:10439000D3FF064600F0E2F800F07FF82846A04779
:1043A00000F07AFC074619200002FFF72DFF0120DC
:1043B0001B4908703046FFF7C5FF1A48844201D1F7
:1043C000012000E0072001460022384600F06AFC88
:1043D000FFF7B2FF064600F06EF83046FFF7B2FF77
:1043E00000200F49087000F079F816E0FFF7A4FFED
:1043F000064600F0B3F800F050F82846A047012028
:10440000074908703046FFF79DFF00F054F8002080
:104410000349087000F062F800BFF8BD03180000FF
:10442000841700008309000010B5B92000F086F958
:1044300010BD70B505460C46284600F089F82046A8
:1044400000F046F870BD0000014800787047000099
:104450008617000010B500F0E9F810BD10B57A20FD
:1044600000F06CF910BD10B5752000F067F910BDB3
:1044700010B5044601222146052000F02DF910BD9B
:1044800010B5044601222146352000F025F910BD63
:1044900010B5AB2000F052F910BD10B5062000F0A9
:1044A0004DF910BD08B56846FFF7E2FF6846007891
:1044B000C007C00F08BD10B500BFFFF7F3FF00280D
:1044C000FBD110BD01480078704700008417000040
:1044D00001490870704700008417000038B500F0EB
:1044E00031F8002800D038BDFFF726FF0446202110
:1044F000012000F0CFF9EB21684601708078810837
:104500008900891C68468170807804218843011DD8
:104510006846817080780821884341186846817018
:1045200080781021884341186846817020214170AD
:1045300000F052F8012000F00BF82046FFF702FFD0
:1045400000BFD0E7014840787047000084170000A2
:1045500001494870704700008417000010B5FFF74C
:10456000F1FF002800D110BDFFF7E6FE0446002150
:10457000084600F08FF90020FFF7EAFF2046FFF71A
:10458000E1FE00BFEFE700000E48C0690121C9024B
:104590000840C00A002800D170470B488068C00757
:1045A000C00F002800D1F7E707480069002801D0B4
:1045B00000BFFEE704484068642801D200BFFEE760
:1045C00000BFE9E700100240001C0240FFF77AFE3E
:1045D00000BFFEE7002070474178114A91620178E0
:1045E00082785207D20F120301231B031A40114392
:1045F00082781207D20F12041B011A4011438278ED
:10460000D206D20F12051B011A40114382781206FE
:1046100003231B061A401143014A516070470000F2
:1046200000000240004870470202040010B500F08C
:104630001BF800200B49C862FFF7F4FF0949C86066
:1046400000F03CF840001E21084006490861FFF7D1
:10465000C1FFC0040F21C90408408130014908602E
:1046600010BD00000000024000BF0E4A9069130414
:1046700002469A431A4311460A4A916100BF00BF9D
:10468000906902469A431146064A916100BF00BFF5
:10469000506A02469A431A431146024A516200BFC9
:1046A000704700000010024000BF03480068C00FC0
:1046B0000028FAD070470000000002400220704736
:1046C00010B50446024A0349204600F055F910BDD2
:1046D00079100000E91000007FB505460E4614462B
:1046E000002C02D0082C00DC01E0FFF76FFF0096E1
:1046F0000198000A0002E9B2084301906846007A76
:1047000004218843014668460172007A08218843E3
:10471000014668460172007A2021884301466846B6
:104720000172007A402188434118684601728481F1
:104730000021C173FFF7C4FF7FBD000010B5044620
:104740002006000E0006401C034908610120486154
:10475000FFF7AAFF10BD00008000024010B504461C
:10476000024A0349204600F007F910BDA1110000DC
:10477000091200007FB505460E461446002C02D0F3
:10478000042C00DC01E0FFF721FF00960198000AED
:104790000002E9B2084301906846007A0421884388
:1047A000014668460172007A08218843014668463E
:1047B0000172007A20218843014668460172007A1E
:1047C0004021884341186846017284810021C173E9
:1047D000FFF7C4FF7FBD70B50B46044603E01D78AC
:1047E00025705B1C641C1546521E002DF7D170BD50
:1047F000044880680721C9068843034908430149E2
:1048000088607047401402408A008A080648806821
:1048100071210840002803D004480349086002E0E1
:1048200003480149086070474014024008800000B6
:104830000AA0000010B5164B1868002100220123C1
:10484000DB050340002B03D0022319431B031A434B
:1048500001235B060340002B03D0082319431B03ED
:104860001A430B4B1B688B431343094C236000BF57
:10487000074B18680123DB050340002BF8D1012307
:104880005B060340002BF3D1014C236010BD0000F8
:104890004014024030B585B004460D4604A800908F
:1048A0000198000A0002EB3001900198C0B201901B
:1048B0006846007A81088900491C68460172007ABE
:1048C00004218843011D68460172007A082188434B
:1048D000411868460172007A1021884341186846E1
:1048E0000172007A20218843411868460172007ADB
:1048F00040218843A10140221140014368460172D2
:10490000012181818573C173FFF7DAFE6846007C5F
:104910003C2800D101E0FFF759FE05B030BD000092
:104920000649086880F3098800BF0549087880F3C4
:104930001488BFF36F8F00BF704700000418000099
:104940000818000010B5FFF753FF10BD4046494658
:1049500052465B46FFB500F06DF90860FFF758FC62
:1049600030BFFFF7DDFFFFF711FCFFBC8046894633
:1049700092469B4600BD0000FEB504460E46174613
:1049800001200190A089042803DC257B00200190F0
:104990000CE020788007800F002805D02078800761
:1049A000800F0421081A00E00020C5B2002D03D1B9
:1049B0000C48864200D10425FFF7BEFC0090A07B86
:1049C00009498862E37B29462046019AB047E27B89
:1049D000A3895B1B99B223685819B8470098FFF761
:1049E000B1FCFEBDE9100000000002407CB50546A8
:1049F0000C461646B002012189020840072109042D
:104A000040181030144908610FE011201249486124
:104A10002046083884B2FFF747FE0F48006A286036
:104A20000D482030406868600835082CEDDC002C0B
:104A300011D0012008494861FFF736FE0648006A98
:104A4000009005482030406801902246694628467B
:104A5000FFF7C1FE00BF7CBD80000240F8B50446F0
:104A60000D4616461F4620790006000E0006217AE4
:104A70004906C90F0843B9020122920211400843B6
:104A8000217A0907C90F4900022211400843217AFF
:104A9000C906C90F4902120211400843217A89034D
:104AA0000322920311400843217A4907C90FC90024
:104AB000082211400843217A8906C90F890004227F
:104AC00011400843691E09040722120411400843DB
:104AD000002D01D0012100E0002109011022114028
:104AE00008430B4908616068000A886130011021A1
:104AF0000840401C06494861FFF7D6FD0448006A9B
:104B000000902A4669462068FFF765FEF8BD000060
:104B10008000024070B505460C461646B0020121E1
:104B20008902084003210905401820301249086114
:104B300009E0114928688862112048612D1D201F55
:104B400084B2FFF7B1FD042CF3DC002C12D0B002CC
:104B5000012189020840611E090507221205114042
:104B600008432030044908612868886201204861B0
:104B7000FFF79AFD70BD000080000240F8B50446C2
:104B80000D4616461F4620790006000E0006217AC3
:104B90004906C90F0843B902012292021140084395
:104BA000217A0907C90F4900022211400843217ADE
:104BB000C906C90F4902120211400843217A89032C
:104BC0000322920311400843217A4907C90FC90003
:104BD000082211400843217A8906C90F890004225E
:104BE00011400843691E09050722120511400843B8
:104BF000002D01D0012100E00021490120221140B7
:104C000008430B4908616068000A88612A466846C3
:104C10002168FFF7E0FD0649009888623001102105
:104C20000840401C02494861FFF73EFDF8BD000006
:104C30008000024000BFEFF314800649087000BFF7
:104C4000EFF309800449086000BFEFF308800021FA
:104C50007047000008180000041800000549496862
:104C6000054A11400201044BFC331A431143014A27
:104C7000516070470010024008FFFF7F0448406801
:104C8000044908400349F931401801494860704718
:104C90000010024008FFFF7F0148006870470000D5
:104CA0007C1800000FB4F8B505460E46AC1900BFDD
:104CB000089800280BD009A8009008990098884708
:104CC000002804D00020F8BC08BC04B01847FFF747
:104CD000E3FF011B00BF0029EADB0120F3E700002E
:104CE000002009E00649496BC90F002900D004E003
:104CF000282800D901E0401CF4E700BF70470000FD
:104D00000014024003B40148019001BD5D0F041876
:104D1000B9FA0318A5FA031832303234303232307F
:104D20003139353135310000A41300003DF9031845
:104D30001400000000000000FF000000F9AD03189F
:104D400075AC0318E9FB031879FB03180000000099
:104D50000000000000000000000000000000000053
:104D600000000510030332303032303800534D411B
:104D700052545F5845000000000000000000000091
:104D800000000000F91300000514000000000000FE
:104D90000B190000000017000C1400002014000084
:104DA000FF0000005DB1031815B2031881B10318AC
:104DB00000000000000000000000000028190000B2
:104DC0000DBC0318C5BC031841BC0318ADBA0318C9
:104DD000D9BA031875BB031811BB0318D1BC03184B
:104DE0009DBD03180000000011BF0318ADBE0318DD
:104DF00000000000000000000000000000000000B3
:104E00000000000000000000000000004DC3031877
:104E1000E5C1031849DF031800000000000000008E
:104E200000000000000000006DC50318E5C3031872
:104E3000B1C30318B1C40318A9C5031839C50318B1
:104E4000AC1B0000AC1F00000000000001010000CE
:104E5000CC270000CC2B0000000000000101000066
:104E6000EC330000EC3700000000000001010000FE
:104E70000C4000000C440000000000000101000094
:104E8000C9DA031801DE031859DE0318B5DE03186A
:104E90006DDA0318C9DD031851DC031831DC03187F
:104EA00005DC031800000000000000000000000006
:104EB00000000000000000000000000000000000F2
:104EC00000000000000000000000000000000000E2
:104ED00000000000000000000000000000000000D2
:104EE00000000000000000000000000000000000C2
:104EF00000000000000000000000000000000000B2
:104F000000000000000000000000000000000000A1
:104F10000000000000000000000000000000000091
:104F2000AC1B0000000000000000000000000000BA
:104F30000000000000000000000000000000000071
:104F40000000000000000000000000000000000061
:104F50000000000000000000000000000000000051
:104F60000000000000000000000000000000000041
:104F70000000000000000000000000000000000031
:104F80000000000000000000000000000000000021
:104F90000000000000000000000000000000000011
:104FA000CC2700000000000000000000000000000E
:104FB00000000000000000000000000000000000F1
:104FC00000000000000000000000000000000000E1
:104FD00000000000000000000000000000000000D1
:104FE00000000000000000000000000000000000C1
:104FF00000000000000000000000000000000000B1
:1050000000000000000000000000000000000000A0
:105010000000000000000000000000000000000090
:10502000EC33000000000000000000000000000061
:105030000000000000000000000000000000000070
:105040000000000000000000000000000000000060
:105050000000000000000000000000000000000050
:105060000000000000000000000000000000000040
:105070000000000000000000000000000000000030
:105080000000000000000000000000000000000020
:105090000000000000000000000000000000000010
:1050A0000C40000021D80318DDD703184DD8031891
:1050B00081D40318A1D903184DD70318A1BE031832
:1050C00099BE031800010000C5BF0318DDBF031817
:1050D0000000000049DA031859C803186DC9031805
:1050E000EDCF0318C1D0031800000000000000003D
:1050F00000000000000000000000000000000000B0
:10510000000000000000000000000000000000009F
:10511000000000000000000000000000000000008F
:10512000000000000000000000000000000000007F
:10513000000000000000000000000000000000006F
:10514000000000000000000000000000000000005F
:10515000000000000000000000000000000000004F
:10516000000000000000000000000000000000003F
:10517000000000000000000000000000000000002F
:10518000000000000000000000000000000000001F
:10519000000000000000000000000000000000000F
:1051A00000000000000000000000000000000000FF
:1051B00000000000000000000000000000000000EF
:1051C00000000000000000000000000000000000DF
:1051D00000000000000000000000000000000000CF
:1051E00000000000000000000000000000000000BF
:1051F00000000000000000000000000000000000AF
:10520000000000000448854600F002FF0048004707
:1052100071320418C046C04600B80000014CA047D7
:10522000014C204735FC031805520318F0B51FB494
:105230000646002082B005464024019100901BE004
:10524000019922460F46304600F0D8F9049A059B92
:10525000801A994110D310461946224600F0BEF933
:10526000361A8F410197224601200021009F00F04D
:10527000B5F938184D4100902046641E0028DFDC47
:10528000019B00982946324607B0F0BDF0B51FB427
:1052900086B000200090019002900698069980B296
:1052A00004900798090C020400141143079000278A
:1052B000089D099806913E463C4603900398A9B282
:1052C0000204000C039004982D0C15434843002160
:1052D000224600F083F9C719714110340E46402C64
:1052E000ECDB3846029A00F079F9009A019B8018AD
:1052F0000090594102980191103002904028CCDB77
:1053000000980BB0F0BD00000549064A08685043FC
:10531000054A8018086040087047014908607047D6
:10532000841800006D4EC6413930000003460B431F
:105330009B0703D009E008C9121F08C0042AFAD24B
:1053400003E00B780370401C491C521EF9D27047D1
:10535000D2B201E00270401C491EFBD2704700220D
:10536000F6E710B513460A4604461946FFF7F0FF64
:10537000204610BD03460A780270401C491C002AD2
:10538000F9D11846704700000FB400B58DB00990F0
:105390000B9010A900200091C0430A9000200C90AF
:1053A00006480690064807906A4609A80F9900F03B
:1053B000B5FC0DB008BC04B0184700003D5D0318F3
:1053C0005D5D0318F0B51FB488B00B9909980024EF
:1053D00048400999C00F490049080991C0070B9935
:1053E0000090490049080B9109990898A64608437E
:1053F0001CD00B990A98084318D009980124400042
:10540000420D4800410D099824050003000B20437C
:1054100009900B980003000B20430B9050181C4977
:105420004018002201901446104605E00020014675
:105430000DB0F0BD032801DA034600E003239C46CB
:10544000C11A0AAE0AE05F0008ADED5B4F00F75BE2
:105450007D430027AA187C41491C5B1E6145F2DD93
:10546000410004AB5A522104120C0A43240C401C84
:105470000828DFDB019802900099704601910090A6
:10548000059B049A0799069800F087FCD0E7000076
:105490000DFCFFFFF0B50C465C4085B0E40FE4075F
:1054A00003944C00002664085900944649080246BB
:1054B0000296224321D062460A431ED06200570D55
:1054C0004A000E032303550D012402462C492405EE
:1054D000781B1B0B360B4018234326436146009074
:1054E0001C46501AB44103D30098401C009002E0BF
:1054F000921800985B41002803DA0020014605B0AD
:10550000F0BD0020012109050746864611E06446EA
:105510001D46141BB54106D36546521BB341744664
:1055200007430C43A646CD07400849082843921874
:105530005B4105460D43EAD11046184313D060463F
:10554000194650407140084306D06046101AB341D6
:1055500006D20122002306E000220123DB0702E03D
:105560000122D2435310009874460105381C614152
:10557000029C039D0019694100F002FCBFE7000096
:10558000FD0300000EB505490291002100910A4675
:105590000B46019100F001FC03B000BD3304000094
:1055A0004A0009030123090B1B051943094B10B5D8
:1055B000520D9A4201DA002010BD064B34339A4254
:1055C00003DC9A1A00F01AF810BD034951188840FC
:1055D00010BD0000FF030000CDFBFFFF10B5202A27
:1055E00004DB0146203A9140002010BD9140202369
:1055F0009C1A0346E3401943904010BD10B5202A81
:1056000004DB0846203AD040002110BD0B46D340B1
:10561000D0402024A21A91400843194610BDFFB57E
:105620000025ED4385B00020009001909F685E68E2
:105630001C46A1696D1C069888470290216A88471C
:105640000028F6D10298401C0CD00320400286436B
:10565000002F19DD700614D502982B2809D02D28AB
:105660000FD103E00020C04309B0F0BD012080024B
:105670000643A1696D1C069888477F1E0290002F83
:1056800002DD0298302803D00798002828D024E0B3
:10569000012040020643A1696D1C7F1E06988847C1
:1056A0000290002F03DD782805D0582803D00798F2
:1056B000002810D011E00798002801D010280CD144
:1056C000012040028643A1696D1C7F1E0698884711
:1056D0000290102000E008200790C017039016E009
:1056E0000A20F9E70120400206437F1E039B079A28
:1056F00001990098FFF7CAFD029AD3178018594103
:1057000001910090A1696D1C069888470290002FB6
:1057100006DD0799029800F0A7FC02900028E1DA64
:10572000E16906988847B00502D40120C0439BE791
:10573000F00710D1700610D5700505D50098019BB3
:10574000002241429A4101E0019A00992068031D1C
:105750002360006806C0284686E72068011D216096
:105760000068019A0099F5E7FFB50027FF4383B071
:1057700000205C6801909E681D46A9697F1C049802
:1057800088470090296A88470028F6D10098401C75
:105790000CD0032040028443002E19DD600614D58E
:1057A00000982B2809D02D280FD103E00020C043FA
:1057B00007B0F0BD012080020443A9697F1C049852
:1057C0008847761E0090002E02DD0098302803D016
:1057D0000598002825D035E0012040020443A9693E
:1057E000761E7F1C049888470090002E03DD7828E1
:1057F00005D0582803D00598002810D022E005983D
:10580000002801D010281DD1012040028443A9693D
:10581000761E7F1C049888470090102002E0082024
:1058200000E00A2005900DE0012149020C43059A91
:105830000199761E514308180190A9697F1C0498AC
:1058400088470090002E05DD0599009800F00CFCBB
:105850000028E9DAE96904988847A00502D4012004
:10586000C043A5E7E00722D1600611D56005019885
:1058700000D5404229680A1D2A600968220501D521
:10588000087014E0220701D5088010E008600EE0DF
:105890002868011D29600068210502D50199017061
:1058A00005E02107019901D5018000E0016038463B
:1058B0007EE7FFB5002083B00090506801909169A9
:1058C0001446002697680498884705460C99069860
:1058D000084305D009E0A169761C0498884705466D
:1058E000216A284688470028F5D1681C03D0019812
:1058F000C00704D017E00020C04307B0F0BD206807
:10590000011D2160006800900DE00198C00704D1DE
:10591000009805700098401C0090A169761C7F1EBD
:10592000049888470546002F1CDD681C1AD006988D
:1059300000280FD0E817C00E401941118A000699BF
:105940004009511840012A1A09680120904001427B
:10595000DBD107E00C980028D7D1216A2846884778
:105960000028D2D0E169049888470C98002807D114
:10597000002E05DD0198C00702D1009800210170BA
:10598000A068B84204DD0C98002804D0002F02D093
:105990000120C043B1E73046AFE70000FFB508780B
:1059A00089B01546FF2805D0491C2D2804D00022B7
:1059B000002407E000240BE00122F9E70A235C43FE
:1059C0000419491C0878FF28F8D1002A00D0644245
:1059D000002004902A7801462D2A01D02B2A0FD1CD
:1059E0006D1C2D2A02D00022049209E00122FBE75F
:1059F00000260A2233466D1CFFF748FC3818714117
:105A00002F78FF2FF4D10C9AA218069202460A436F
:105A100004D0FF23069A9133DA4205DA002109986F
:105A20000A4606C00DB0F0BD0024B74AB54D264663
:105A3000079200F0C7FC029006980391002801DA53
:105A4000474200E0074639050020AF4A001C51419B
:105A50000191009012E0F80707D022462B4630460D
:105A60000799FFF7AFFC0646079122462B461046E2
:105A70001946FFF7A7FC04460D467F10002FEAD118
:105A80000698019B0028009A0399029806DAFFF70E
:105A900001FD3246079BFFF7FDFC05E0FFF792FC96
:105AA0003246079BFFF78EFC049A002A02D001229F
:105AB000D2075140099A03C2B4E7FFB591B0002064
:105AC00009900025ED432E209E685C681F460190DA
:105AD000B9696D1C129888470090396A8847002878
:105AE000F6D10098401C0AD00D20C0018443002E3E
:105AF00012DD00982B2809D02D280DD103E00020BD
:105B0000C04315B0F0BD012080020443B9696D1C8B
:105B100012988847761E009003A9600501D52D20B4
:105B200000E02B206A461073491C0CA80F910290CC
:105B30000AE0B9696D1C1298884700900120400264
:105B400004431398761E0560002E02DD009830286D
:105B5000EFD001990098884246D18020044308E0A4
:105B60000998401E09900120400204431399681CC3
:105B70000860B9696D1C761E12988847009030281D
:105B8000EED031E00199884205D1200603D480206F
:105B90000443761E1EE000980AF078FC002826D008
:105BA00001204002044307A90F980331761E884262
:105BB0000BD200980F99303808700F98401C0F9046
:105BC000200607D50998401E03E0200602D4099854
:105BD000401C0990A00502D51399681C0860B9699A
:105BE0006D1C129888470090002ECBDC59E0002EE7
:105BF00057DD0098652801D0452852D1A00550D521
:105C0000032000028443B9696D1C761E12988847F0
:105C10000090002E0CDD2B2804D02D2808D1FF2069
:105C200001300443B9696D1C12988847761E0090B4
:105C3000E00501D52D2100E02B210298017002988A
:105C4000401C0290019025E00120400204430EA96F
:105C500002980131761E88420ED20098029930389F
:105C60000006000E087003D10299019881420AD9FA
:105C70000298401C029006E0E00501D5234801E0AF
:105C8000224840420990B9696D1C129888470090DB
:105C900013980560002E04DD00980AF0F7FB002839
:105CA000D2D1F969129888470F99FF20087002999C
:105CB00003AA087000200A900B900CA90AA8099B5F
:105CC000FFF76CFEA00502D40120C04319E7242091
:105CD000044209D0E00713D138680B9A0A99031DD2
:105CE0003B60006806C00BE00B990A9800F078FB57
:105CF0000146E00704D13868021D3A60006801607F
:105D00002846FEE6000014400000F03FF1D8FFFFF7
:105D100002681378511801601846704710B5D160B9
:105D2000044951610449116200211161114600F0DA
:105D3000ABF910BD115D03185B6003184268002ABF
:105D400008D001680B78491C002B03D0521E06C0F6
:105D5000184670470121C160881E70474268002ABA
:105D60000BD0C3680168002B07D183688B4204D035
:105D7000491E521C06C0002070470020C0437047D7
:105D800010B5002B08DA0024401C614192185B41D9
:105D90001A4301D14008400010BDF0B51FB482B0D5
:105DA00005460C0003D008460AF074F902E00AF038
:105DB00071F920300246009021462846FFF70EFC7C
:105DC000049B059A04460F4618431143084314D018
:105DD000184610431BD0009840210A1A184605990E
:105DE000FFF70CFC05460E46009A05990498FFF74C
:105DF000F5FB084305D0012004E02046394607B0F2
:105E0000F0BD0020C11705430E432C4337430099D2
:105E10000E986305401A7905E40A00220C43FD0A36
:105E20000A3002D500200146E9E701051019694151
:105E30000C9C0D9D00196941FFF7A2FFDFE70000F0
:105E4000F0B507460846584087B0C00F0490480098
:105E50000E46590040084908BC1A884105D2384608
:105E600031461E4617460B4602465800400810436E
:105E70004DD0300D039040055900400D490D05905F
:105E8000401A0290402873DA18030121000B09051B
:105E90000843019004980092002806D01146019A08
:105EA00049420020904100910190029840210A1A35
:105EB00001990098FFF792FB05460C466B4607CB0D
:105EC00000F0B8F8C0197141039A0E0D0023D717DE
:105ED00056401A467A40164344D0049A002A2DD0E0
:105EE000029A012A039A15DC1205C01A9141012673
:105EF0003605001C7141D20F059ED2070093019216
:105F000002962A462346FFF748FF07B0F0BD384601
:105F10003146FAE71605234A0F46B218C01AB741B0
:105F200001210905001C4F4100187F411146181836
:105F30007941E20F10436D19644113E0E2076D08E7
:105F400015436408C2071443039A01261205C01AB8
:105F500091413605001C7141CE0740083043490885
:105F6000C01851412A462346FFF70AFFCDE7FFE755
:105F7000049801224000C117121A00238B41049893
:105F80003146C417381AA141EEE730B40124E407C2
:105F9000634030BC54E730B40124E407614030BCB6
:105FA0004EE700000000E0FF4A0009030123090B4F
:105FB0001B0519430A4B10B5520D9A4202DA002014
:105FC000014610BD064B34339A4203DC9A1AFFF7A0
:105FD00015FB10BD034BD218FFF700FB10BD0000EE
:105FE000FF030000CDFBFFFF10B5002904DB0124F7
:105FF000E40740428C412146002B04DB1C46012370
:10600000DB075242A341994200D1904210BD0000EB
:10601000064C0125064E05E0E36807CC2B430C3CFB
:1060200098471034B442F7D3FFF7F0F870720418B1
:10603000B072041810B5202A06DBCB170846203AA8
:106040001041C1170B4306E00B461341D0402024FA
:10605000A21A91400843194610BD10B50F21C0B2D5
:10606000490200F0D9F910BD3A2800D23038202377
:1060700002469A43412A01D310463738884201D359
:106080000020C04370470000F3B58DB000200A9097
:1060900001200B90002608460C300C4609906269DE
:1060A000012109989047051E2ED0252D2DD0216A5B
:1060B0008847002818D06269012109989047216A11
:1060C00088470028F7D1411E62690998904700E08F
:1060D000761CA1690D988847216A88470028F7D166
:1060E000E1690D988847DAE7A1690D988847074666
:1060F000A84201D1761CD2E7E1690D9888477F1C40
:1061000002D10A98002877D04AE1002762693D460B
:106110003946099890472A280CD1626901210998CB
:106120009047012506E00A214F433F18303FEBD44A
:1061300010200543626901210998904701463039D2
:106140000A2903D29C498F42DEDCECE7E90600D441
:106150009A4F6C280AD04C2810D0682824D06A287E
:106160002ED074280CD07A280AD00DE06269012163
:10617000099890476C2823D004211CE02020054377
:106180006269012109989047A760656065284FD032
:1061900026DC582839D01ADC452849D012DC2528BD
:1061A00034D04128B0D143E0626901210998904779
:1061B000682802D008210D43E6E70120C002DEE78F
:1061C0000220DCE7462833D047282CD130E05B287A
:1061D00070D061282CD063286CD0642823D161E072
:1061E0006F284FD009DC662822D0672820D0692884
:1061F00026D06E2817D12EE0CEE070284DD073281F
:106200006FD075284ED078280DD154E0A1690D9833
:1062100088470546252800D16CE7E1690D98884735
:106220006D1C00D16DE7BBE00A224CE00A2252E06F
:10623000012023466A46C0430D99FFF73EFCA4E0C7
:106240002846402108436060A807234601D5002264
:1062500039E000223FE0E80700D020E72068011D78
:1062600021600068290501D5067018E7290701D5C6
:10627000068014E7A90703D5F117066041600EE711
:1062800006600CE72846402108436060A8072346C3
:1062900001D5082217E008221DE049492846084098
:1062A000606016E02846402108436060A807234646
:1062B000BCD5B9E715E02846402108436060A8072F
:1062C00007D5234610220120C0430D99FFF7A7F9F7
:1062D0005BE0234610220120C0430D99FFF744FAEA
:1062E00053E000210C910B460091632802D05B28FB
:1062F00008D044E02079C00601D40120A06001202C
:1063000000903CE062690121099890475E2805D120
:1063100001200C9001466269099890472169002983
:1063200006D10B4601AA8F00491CD3510829FADB7C
:10633000002835D0216900290ED1C117C90E0918CE
:106340004A11930001AA9A1849094901411A0120EA
:1063500013688840034313606269012109989047DC
:106360005D28E5D10C98002808D0002001AB810001
:106370005A58401CD2435A500828F8DB01AB012080
:106380002246C0430D99FFF794FA00280ADA401C10
:1063900006D10B98002803D00020C0430FB0F0BDF9
:1063A0000A98FBE7E90702D10A99491C0A913618B5
:1063B00000200B9073E60000CCCCCC0CFFFFFF7FDD
:1063C000F1F7FFFF0EB5054A029200220092134634
:1063D0000192FFF7E2FC03B000BD000033040000AF
:1063E000CB0FDB07490010B5490802460A4307D026
:1063F0000A0D07240903E401090B121B002A01DC22
:10640000002010BDC900440F0C43C100E018D205A4
:10641000801800F013F810BD7F2801D9002207E092
:10642000054B42089A5CC00700D112091207120FEF
:106430000120904008407047CC6A0418002904DA13
:10644000401C490001D140084000704770B400244E
:10645000050C05D11024000402D1002921D01124FB
:10646000050E01D100020834050F01D10001241DE1
:10647000850F01D18000A41C002801DB4000641CB2
:10648000002908D020252E1B0D46F540A14000D044
:1064900001212943084301061B1B000ADB1D02D50D
:1064A000002070BC7047DB05181880180029F8DA46
:1064B000401C4900F5D170BC400840007047000006
:1064C00004207146084202D0EFF3098001E0EFF3A7
:1064D000088001490847000055FB0318024B1B893F
:1064E0000380002383707047389E00000EB4FFB510
:1064F00004000026FF2709AB1B7801930AAB039326
:10650000019B9E4205D1200004B0F0BC08BC03B042
:106510001847039B01361A000C3203929A681868D8
:10652000551CEDB259683A40257060700135A01CC9
:10653000FDF794FC6419E3E7F7B517000193040035
:106540000D00DCF707F9290006002000DCF70BF945
:106550003200010024230D48FBF77CF80200AD0057
:1065600064196368203332CB32C232CB32C212CBD1
:1065700012C2431C019ADF77831CDA77FBF78EF88F
:1065800030000121FBF7FAFBF7BDC04609C6000049
:10659000F7B517000D0001930400DCF7E4F82900BB
:1065A00006002000DCF7D6F81C2302003100154855
:1065B000FBF750F8019B060007704370A800002FFE
:1065C00015D127187B681A221900B01C0193FDF71A
:1065D00045FC29002000019ADCF75CF92900200025
:1065E0007A68DCF73BF93000FBF758F8F7BD241860
:1065F00060680028F7D0892FF5D0FBF7EDF900236C
:106600006360F0E701C6000000207047002070477B
:10661000F7B51F00174B15001C7800900191032C53
:1066200004D0042C01D103221A70F7BD124E337826
:10663000002BFAD02620DCF7BBF82B00010022004B
:1066400008330E48FBF706F800230400C370009BD4
:106650002A008371ABB2838001990770877007307D
:10666000FDF7FCFB2000FBF719F83378013B337092
:10667000DBE7C046FD9D0000FC9D000002260000F7
:1066800070B588B06B46062602AC22000120D91DE9
:10669000DE71002503F0F8FCA84214D0022104A802
:1066A0000DF08EFC320004A92000FDF7D7FB40233B
:1066B00062795B42134363716B4622000120D979F2
:1066C00003F054FD013510232100042004AA237097
:1066D00003F0DAFC002811D1002D18D10D49032058
:1066E000FBF7F0FA0322072101230B48FAF7B2FF68
:1066F00001230370FAF7D2FF08B070BD042104A88B
:106700000DF05EFC0420217804AA03F02FFD03F0B5
:1067100079FDE3E7D06C0418020D000070B50500A8
:106720000C001E00032A04D0D822944994480CF08F
:106730007DFC280A310A242800D15CE111D80B38ED
:1067400083B2092B17D8092815D8FDF76FFB410133
:106750007000B20021001400140014001400140092
:106760004901C72800D142E107D8262800D140E1DD
:10677000C62800D141E1002070BDC82800D131E118
:10678000804BFD28F7D1210028001B689847F2E7CD
:106790007D4B9D4213D87D4BE8181B28EBD8FDF7A5
:1067A00027FB161AEA1EEAEAEAEAEA423EEAEAEABF
:1067B000EA36EA3AEA22EA26EA2AEA2EEA32E3232B
:1067C0001B019D42D7D1200001F0BEFDD3E7200080
:1067D00001F0AEFCCFE7200001F0CCFCCBE72000BD
:1067E00001F0E2FCC7E7200001F0E4FBC3E7200072
:1067F00001F02CFBBFE7200001F0EEFCBBE720001E
:1068000001F0DEFCB7E7200001F0D8FDB3E720007F
:1068100001F0AAFDAFE7200001F0C6FDABE72000C4
:1068200001F022FDA7E7200001F082FDA3E7584B0D
:10683000E81817289FD8FDF7DBFA0C9E109E141855
:106840001C209E249E9E282C9E9E9E9E9E309E34A2
:106850009E38200001F092FE8DE7200001F07EFFBF
:1068600089E7200001F020FF85E7200001F002FF0A
:1068700081E7200001F0E2FE7DE7200001F0C6FE86
:1068800079E7200001F078FF75E7200001F026FF8E
:1068900071E7200001F042FF6DE7200001F080FF6A
:1068A00069E7200001F086FF65E7200001F054FE53
:1068B00061E7384B9D4200D95DE7374B9D421AD8BE
:1068C000364B9D4270D0364B9D4253D01C3B9D426F
:1068D00000D050E72378AA2B00D94CE79F2B16D87D
:1068E000032B26D0172B39D0012B00D043E760783B
:1068F00001F056F83FE72B4BE818042800D93AE797
:10690000FDF78AFA56005A0039FF5E00620018004F
:10691000A0380A2800D92EE7FDF77EFA0F000F00F5
:106920000F000F00140018002DFF1C002DFF240085
:106930002800607801F092F81DE71800617800F0F7
:106940008BFF18E7607801F0B1F814E7607801F088
:10695000DFF810E7607800F0A5FF0CE7607800F042
:106960005DFD08E7607801F03FF804E7607801F02A
:1069700089F800E7200000F0BDFFFCE65B6D04181D
:10698000476D0418F89E00001B0E000000F2FFFF88
:1069900000F4FFFFA80D0000A30D0000150D00007E
:1069A0001C0D00005CF2FFFF200000F029FDE2E674
:1069B000200000F029FFDEE6200000F02BFFDAE6E1
:1069C000200000F07FFFD6E6200000F0FDFFD2E6B9
:1069D0000D4B9D4200D0CEE6200001F09BF8CAE6A8
:1069E0000A4BD0E62100280003F018FEC3E6084B4E
:1069F000C9E6084BC7E6084BC5E6084B0A00280065
:106A000021001B689847B6E6010B0000F49E0000C9
:106A1000009F0000FC9E0000F09E0000EC9E000025
:106A200070B505000C0064290CD82420DBF7C0FEEB
:106A30000223010003220448FAF70CFE057044709B
:106A4000FAF72CFE70BDC0460224000000207047FB
:106A5000F7B510000C0016000193FBF7FDF90700D5
:106A60000220002F16D12230DBF75CFE2378827FD4
:106A700005009A420FD96278642A0CD8C318012104
:106A800030009A760C3CFBF779F96C61EF7700F0F7
:106A900095F80120FEBD0123320001990448FAF760
:106AA000D9FD81230370FAF7F9FD0020F2E7C04613
:106AB0000324000070B5094B0D001B78C468023B2D
:106AC000994205DB0022064B110001201B68984704
:106AD000002364190134E37770BDC046010600004D
:106AE0005406000070B5094B0D001B78C468023BCA
:106AF000994205DB0022064B110001201B689847D4
:106B0000002364190134E37770BDC046010600001C
:106B10005406000070B5C56804006869002801D0FB
:106B2000FAF75AFF00232800E360FAF755FF70BD1B
:106B3000F7B5100001930C001600FBF78DF90090DB
:106B4000009B0220002B1BD12230DBF7EBFD184FFE
:106B500005003B782078013B834212DC022332009F
:106B600001991448FAF776FD2178402201703B78AC
:106B7000013B8B4200DD49324270FAF78FFD002065
:106B8000FEBDD2F761FF0C4B9842E7D030000121E7
:106B9000FBF7F4F823786278EB180133DA77009B7F
:106BA0000C3C6C61EB7700F009F80120E8E7C04687
:106BB0000106000001240000FFFF0000F8B52420BA
:106BC000DBF7B0FD41690400002904D1364B0A000F
:106BD00001201B6898479021636989019A888A423D
:106BE00039D101271D7B61190131E27F012A1DD9AD
:106BF0009021636989019A888A4249D1DA88198982
:106C00002A480223FAF726FD002305704370FAF79D
:106C100045FD00256069FAF7DFFE29002000656167
:106C2000DBF798FD2900FBF7A9F810E0C87F1041B9
:106C300038420DD09E18A018B67B807E864207D0C1
:106C40002900200000F04CF9E37F0133E377F8BD21
:106C50000132E277C9E716498A4212D10126154A64
:106C600010780238E17F814201DBFF25C0E765181B
:106C700001351A7BED7F15413542E2D10131E177D3
:106C8000F0E70022084B110001201B689847ECE751
:106C900007498A42BDD1DA88198907480123FAF7E2
:106CA000D9FC00230370B2E7540600000124000061
:106CB000022400000106000003240000F8B50400CF
:106CC00024200D00DBF72EFD867F02000020A64267
:106CD00008D90127138BC1B28C4204D8022D0AD8DF
:106CE0005B1998B2F8BD517F0141394004315B18FE
:106CF0009BB20130EFE7032D06D1527F00202241E5
:106D0000D207EFD50333ECE70020042DEAD1012EA2
:106D1000E8D9507F0121204108400330181880B283
:106D2000E0E7F7B5040024200D001600DBF7FAFCBD
:106D30000023028B2B70837F29789C46994201D2D5
:106D4000A24201D9802006E0931C01939C4203DCFF
:106D5000A21A32700020FEBD477F01230F411F425F
:106D600006D0033292B2944204D102333370F1E779
:106D70006B469A886346012B05D9013292B2A24232
:106D800001D10423F2E70132013192B22970D2E736
:106D9000F0B58BB00693109B07001B788125013B53
:106DA00004910792012B00D991E04A4D01212878E6
:106DB00000261E30FAF786FD04002A7835000021EF
:106DC0001E32FDF767F8109B1B78A377109B1B788A
:106DD000B34264D9002D03D02000FAF7FDFD76E020
:106DE000132504ABED1807232B70109BF1009B19A2
:106DF0005B7860181A00B2400593637F0430134338
:106E00006377109B082259180431FDF727F8059B7A
:106E1000012B01D10E332B70A37F012B03D910233B
:106E20002A7813432B70142273000593049B04A942
:106E30001B88891870000B5209AB18181E2306997D
:106E400004AA0B400393244B132102933B8A891815
:106E5000019300230A00009320490533CDF7E2FA9D
:106E6000051E19D1142204AB9B187100585A109BAF
:106E70009B195978431D9C464B1E5A1E93416246EE
:106E8000D31A049A1380012906D1902102302A00D6
:106E900080B24901CDF738FD0136F6B296E7002DF4
:106EA0009AD109AB1B88049AFC6013802383069B4C
:106EB0003800DA03079B1A4322803B8A638024232D
:106EC0007B8200F039F82900388AFAF757FF28004A
:106ED0000BB0F0BD010600007C6D04180F18000017
:106EE00070B50C00002116000500DBF733FC06210D
:106EF0000200C1202402214309230001FAF7AAFB62
:106F000012230400022103703000FFF7D7FE012393
:106F1000AD19E380AB7EA08023722000FAF7BEFBA0
:106F200070BD000000487047A46D0418014B186044
:106F30007047C046009E000010B504002420DBF717
:106F4000F1FB034B1C302360024B6060A36010BD5B
:106F5000B46D04180100060000207047002070473F
:106F600010B50622FCF76CFF43425841C0B210BD79
:106F700010B50D20134909F059FF134C1E202100B4
:106F800009F054FF21001F2009F050FF21000320C9
:106F900009F04CFF2100132009F048FF03F0D6F858
:106FA0000A4B0B4A0B481A600B4A5A600B4A9A600C
:106FB00002F0ECFF0CF068FFF9F7FEFB00F034FB89
:106FC00010BDC046ADAB0318510700000C06000011
:106FD00089A003181C0600006DA1031845A0031822
:106FE00010B5DFF713FBF9F799FF10BD9422114B91
:106FF000D2031A60104B114A1A60114B114A1A60E1
:10700000114B124A1A60124B124A1360124A136053
:10701000124A1360124B134A1A60134B134A1A6038
:10702000134B144A1A60144B144A1A60144B154A35
:107030001A6070477000005074000050205000002B
:10704000780000504000C0C87C00005000E400E41C
:1070500073024600800000508400005088000050F9
:107060008C0000507302000090000050021C1C00B5
:1070700094000050020E0E00980000503626640363
:107080009C0000501600030310B5304A1368002B13
:10709000FCD0A0232E4ADB051A602E4B2E4A2F4C23
:1070A0001A6022682E4B1A60228C2E4B1A60002226
:1070B0002D4B1A60FFF79AFF2C4B2D4A2D481A6072
:1070C00062682D4B1A60A2682C4B1A60E2682C4B48
:1070D0001A6022692B4B1A6062692B4B1A602B4B8A
:1070E0002B4A1A60702301780A1D5A430231543228
:1070F000FF32C9B2090492080A4326490A60618C2A
:10710000254A11601021254A11600278111D4B4358
:1071100003215433FF338B43911C0C224A43033227
:107120009B181F4A9B081278120413431D4A1360D0
:10713000A28C1D4B1A60A2691C4B1A60E2691C4BA1
:107140001A60E28C1B4B1A6010BDC0460400005050
:10715000070710000C0000501E000100049E0000F4
:1071600018000050280000502C000050E000005093
:107170002C017C0101060000E4000050E8000050F2
:10718000EC000050F0000050F400005020010050CE
:10719000D90296FF300100503401005038010050F0
:1071A00003060000600100506401005068010050B7
:1071B0006C01005080010050124B1A68124B1A608B
:1071C000124A12685A60124A12689A60114A12688A
:1071D000DA60114A12681A61104A12685A61104A3C
:1071E00012689A610F4A1268DA610F4A12681A84AB
:1071F0000E4A12685A840E4A12689A840D4A12681E
:10720000DA84704718000050049E0000E40000502B
:10721000E8000050EC000050F0000050F400005076
:10722000680100506C0100502800005034010050EB
:10723000640100508001005010B5F9F75BFB10BDF0
:10724000154B033810B51860FAF7B8F8002804D0C9
:107250004021124A13688B431360114B114C18885C
:10726000F9F790FBF82380029B040440184205D0F4
:1072700000220D4B110001201B6898470B4B0C4A54
:107280002343136007230B4A11680B4313600AF072
:1072900015F9FFF791FF10BD3400005018000050A1
:1072A000A86A041800FCFF03540600000100200037
:1072B0003C000050300000502A4AF0B51688944631
:1072C000F24304000021284B85B000AF1B783A60E0
:1072D000CDB2AB420ED9796078683A68013102418B
:1072E00001200242F4D00200796825708A4061468C
:1072F00032430A806A46FB730733DB08DB00D31A8C
:107300009D460F236A464F20F9186E4602F0BCFED8
:10731000002822D1144AFB7B1278AA4218D19D4240
:1073200004D03122114912480BF080FE357830002C
:107330002570FC7B711C013C2200FCF798FD355543
:107340003200F97B4F2002F011FFBD4605B0F0BDC1
:107350002278F2540133FB73F2E70123FB732378A5
:107360003370EDE7149F0000E89E0000E46D041800
:10737000FD6D0418F0B506000F00150097B0002948
:1073800034D03F22437900249343402B12D1184B31
:107390000100393A17481D60FCF760FD03F0A6F9BB
:1073A00017B0F0BD144B01221B882341134207D1B3
:1073B0000134E4B2114B1B78A342F3D8FF2013E051
:1073C000200001A900F03CF852236B441B78BB421B
:1073D000EED1310013A8FFF7C3FD0028E8D0074B1A
:1073E00020001B78A342E9D9A847D9E70C00E1E7C0
:1073F0000C9F0000049F0000149F0000E89E000006
:10740000002210B5034B18781A70034B1B6898477D
:1074100010BDC046109F00000C9F000010B547280B
:1074200005D1034A13780133137003F05FF910BDDF
:10743000109F0000014B18707047C046E89E000086
:1074400007B56B460A00D91D52237030C0B20B70CD
:1074500002F01AFE0EBD07B56B460A00D91D0123C6
:107460006030C0B20B7002F00FFE0EBD07B56B4668
:107470000A00D91D06235030C0B20B7002F004FE82
:107480000EBD000070B5002401250A4B1B78A342F5
:1074900000D870BD20007030C0B202F08FFE00280E
:1074A00005D02B00A340044A11880B4313800134FC
:1074B000E4B2EAE7E89E0000149F000010B57030C7
:1074C0000A005221C0B202F051FE10BD00207047E8
:1074D0000020704710B504210CF072FD10BD10B5EE
:1074E0000400D7F72FFA0100200006221030FCF725
:1074F000B5FCD7F7F1F9A075D7F71EFA10220100F5
:107500002000FCF7ABFC10BD10B51C22FCF7A6FC5C
:1075100010BD00290DD00B7803704B7843708B7829
:107520008370CB78C3700B7903714B79437100235F
:107530008371704710B51022FCF790FC10BD00005D
:10754000F0B5314E0821330061331B7899B01B022E
:1075500019430500342303222C48FAF77BF803AFC4
:107560000400FF2D34D039002800FFF769FF002800
:107570000FD15B236B441A78230028331A7003223F
:1075800017AB1B781340033B5A42534122002A3267
:10759000137069462800FFF75EFF002809D16B468B
:1075A00002221B781A40DB07DB0F1343220029322B
:1075B0001370280001A9FFF759FF002808D16B4676
:1075C0009B88A3856B46DB88E3856B461B892386F6
:1075D0002000FAF763F8330061331A7871680020ED
:1075E0008D5432005A32128839003A8032005C32AF
:1075F00012887A8032005E321288BD71BA801A78A1
:107600003368984719B0F0BD649E0000020E000078
:1076100010B500F029F8002010BD10B548680B68BF
:107620009847002010BD000010B5044B044918789D
:107630000A30C0B2FAF746FB10BDC0460206000091
:10764000DC6C0418044B10B5040018680BF01EFB2A
:10765000002800D0046010BD309E0000014B18606F
:107660007047C046309E0000064B0138C1B210B5CD
:1076700018680BF052FB0368DA0701D54068984799
:1076800010BDC046309E00000A4B70B504000D00CE
:107690004260010018680BF047FB074B0130197876
:1076A0002A000A31C0B2F9F799FE01232268134378
:1076B000236070BD309E000002060000002070476D
:1076C0000020704710B5EFF73DFE10BD0020704759
:1076D00000207047002070470020704710B500213F
:1076E00000F001F810BDF7B516230500027AB020AE
:1076F00001320E005343052103220001F9F7AAFFCE
:10770000032304006A7A43801107D306DB0F890F35
:107710004901DB0192070B43120F134306800371EB
:107720002B7A10224371270029680630FCF796FB5C
:1077300000236E6816370193019A2B7A934203D87F
:107740002000F9F7ABFFF7BD102238003168FCF7D5
:1077500085FBF379B2791B0213433B82B3881B0587
:107760001B0D7B82B38808361B0B1B03BB82019B5E
:1077700016370133DBB2DEE770B50600DA200D0004
:107780002C23032207210001F9F764FFA0230370D3
:10779000AB7A06714370AB7B04004371291D022252
:1077A0000630FCF75BFB002323722B7B6372296896
:1077B000002904D0200006220A30FCF74FFBEB7AA8
:1077C0002374EB8863612B89A3616B7B237701238F
:1077D00063779E4208D12A7CE318DA776A7CA31C7F
:1077E000DA77AA7CE31CDA772000F9F757FFAA883A
:1077F000014B9A8170BDC046389E000010B5010053
:107800000020FFF7B9FF10BD0278014B1A707047D6
:10781000349E000013B543780400032B0BD80A4AAA
:10782000D05C6A46237801A91371A3785371074B82
:107830001B68984713BD7E2205480649FF320BF0AE
:10784000F5FB0020EDE7C046C26C04184C9E00001A
:107850002C6E0418306F041813B56030C0B20C00E1
:1078600003280BD8094B185C6A46094B54711B78E6
:1078700001A91371074B1B68984713BD0648074AB7
:1078800007490BF0D3FB0020EEE7C046C96C041893
:10789000349E00004C9E00002C6E0418470200002D
:1078A000306F041807B56A46044B50711B780E20E0
:1078B0001371034B01A91B68984707BD489E000040
:1078C0004C9E00001FB503006A461A330093831CC8
:1078D0000193037A69469372038B1381437CD372BD
:1078E00043780F201373024B1B68984705B000BD07
:1078F0004C9E000013B5838801AC23800388C62BFF
:1079000024D00BD8242B1FD0262B1BD0142B0DD00A
:107910000F4A104910480BF089FB09E0C82B0DD025
:10792000FD2B0DD0C72BF3D1022300E00023A37061
:107930000A4B210002201B68984713BD0123F6E77C
:107940000323F4E70423F2E70523F0E70623EEE739
:107950006E020000306F04182C6E04184C9E00005C
:10796000F7B51E000833170001900D000322072110
:107970009BB20A48F9F76EFE1B230370019B0400BB
:1079800043800323AD003200390045704360083066
:10799000FCF764FA2000F9F781FEF7BD1B0D00002B
:1079A00010B5002804D06122044905480BF03EFBC5
:1079B0000021044B08001B68984710BD306F041865
:1079C0002E6E04184C9E000007B56A4603780130FD
:1079D0001370837969465370024B01901B68102025
:1079E000984707BD4C9E000037B5002805D0C72238
:1079F0001549164852000BF019FB154DEB7A002B78
:107A000014D00433032207211248F9F723FEEA7A3F
:107A10000400428069680430FCF720FAAA2323702E
:107A2000AB7B20006370F9F739FE37BDEB7BA87B99
:107A3000002B02D100F086FDF7E7074B01A9087083
:107A40001B6809209847F0E7306F04182E6E041861
:107A5000389E0000A60D00004C9E000010B50028C6
:107A600004D06722044905480BF0E0FA044B0021DA
:107A700001201B68984710BD306F04182E6E041843
:107A80004C9E000007B5074B987BDB7B002B02D197
:107A900000F058FD07BD044B01A908701B680920C0
:107AA0009847F7E7389E00004C9E000007B5114844
:107AB00001A90AF051F9002805D184220E490F4886
:107AC00092000BF0B3FA6B465B79022B0AD80C4A92
:107AD000D05C6B466A461B7969461370094B1B687C
:107AE000984707BD0848094A03490BF09FFA002050
:107AF000EFE7C046509E0000306F0418496F04182D
:107B0000C66C04184C9E00002C6E04181E02000067
:107B10007047000007B56A46038801A993808378FF
:107B200003209371014B1B68984707BD4C9E0000D2
:107B300070B50D000400D6F7CFFE01231840287061
:107B4000D6F700FF062201002000FCF787F970BD80
:107B500010B5044B052218600349022303480DF0B9
:107B600030F810BD4C9E0000EC9D0000509E0000BF
:107B700070B50D00160004000648FFF7D7F9064B54
:107B8000064A21001A60242033002A00FFF7E8FE8D
:107B900070BDC046256F0318F09E00006BA203184D
:107BA00070B50D0016000400064802F0D7F8064B29
:107BB000064A21001A60262033002A00FFF7D0FE73
:107BC00070BDC046559D0318FC9E000095A2031889
:107BD00010B502000621012002F0C8FA02F012FBE3
:107BE00010BD000037B534230721032205002648C5
:107BF000F9F730FD254B02000380E1239B00438011
:107C00006B46991D102304000A3204200B7002F009
:107C10003BFA002804D03E221D491E480BF006FA0C
:107C20006B46D91D06230120221D0B7002F02CFA91
:107C3000002804D04122164917480BF0F7F92B7899
:107C4000002B03D00123A27E1343A3766B78002B75
:107C500003D00423A27E1343A376FB220323628472
:107C60000E4AE376A2840E4A00232285E284220093
:107C70002A32A383E383238420001370A385E38542
:107C8000F9F70CFD37BDC046040D0000030F0000DE
:107C9000306F0418496E04185E6E0418480800001E
:107CA00007020000F7B508AC2778144C0425267BA2
:107CB000019333002B402E421BD1E373019B2160C3
:107CC000636007215319A272A07303220C48E77264
:107CD000F9F7C0FCA27A0500428021680430FCF765
:107CE000BDF8A9232B70A37B28006B70F9F7D6FC95
:107CF000F7BDA07300F026FCFAE7C046389E0000EE
:107D0000A60D00000020704770B500220125838970
:107D1000C48901339BB226001641D0B22E4204D052
:107D20005E1C8E4205D002339BB20132092AF2D189
:107D3000100070BD00207047002070470020704781
:107D40000020704770B503000E0042880500062130
:107D5000C12094331B7852041B021943520C1A237E
:107D60000001F9F777FC13230370002312220400AB
:107D7000438072352B88310002338380C280083003
:107D8000FCF76CF82000F9F789FC70BD70B5084B62
:107D900005000C00FE2019780823FF2298400A31C4
:107DA000F9F758FC05604460F9F778FC70BDC046EF
:107DB00002060000F0B5B5B0040018A80CF0B8FF3A
:107DC000E822636E1206A56E9E18002D17D118A921
:107DD00068460CF027FF134D68462B684434202179
:107DE00098472B68200020219847202221006846D0
:107DF000FCF726F843425841C0B235B0F0BD402DE3
:107E00000DD94027403D30003A0008A90AF05EFA3B
:107E10003A0008A918A80CF0B7FFF619D5E7AFB2D9
:107E20000025F0E7F805000010B50C00082100025D
:107E30000143032202230448F9F70CFC0123447098
:107E40000370F9F72BFC10BD040E0000F8B5040018
:107E500000780D000238052830D8FBF7D3FF033037
:107E60002F3F3467A378494C2200573213701B0709
:107E70000FD5230020000833243046C846C346C827
:107E800046C302681A6022000123583211780B435E
:107E90001370636858195B5DFF2B01D1FFF70CFA73
:107EA000210063680831585DFFF708FB02F0AAF96A
:107EB0002A0001205734217802F0A8F9F8BD2A00E1
:107EC0000020A178F8E7324B01201B683149984720
:107ED000314B10211B68A01C9847EFE72C4F012065
:107EE0003B682E4998472C4DA61C30002B6810216A
:107EF000984712343B6801202949984720002B6895
:107F000006219847214D04232A0028005832117871
:107F100040300B43137031001022FBF79FFF280005
:107F2000072221005030FBF799FFC7E7184D0120C9
:107F30001C492B689847184FA61C102130003B683D
:107F40009847012018492B689847200002213B6878
:107F500012309847012015492B68984720000821C6
:107F60003B6814309847227F2B68012010499847BE
:107F7000064C1C22200031002430FBF76FFF022347
:107F8000583422781343237098E7C046649E00005B
:107F9000FC050000956E0418F8050000866E0418B4
:107FA000B46E0418A56E0418C66E0418746E041816
:107FB000D66E0418F0B5050000780C0087B00A28CA
:107FC0001AD8FBF71FFF061919193D7C821B19747B
:107FD00088004D4B1A0060321278FF2A07D16A7868
:107FE00004A90A70042022001B68984704E00022BC
:107FF0002000110000F036FA07B0F0BD424E01211A
:10800000320037005832137808370B4338000331F9
:1080100013700BF0D5FF3D4B1B6898473083300041
:1080200002211A300BF0CCFF6B780336F377384B14
:108030000122009307213B00200000F039FADBE722
:108040006B78012B09D0022B24D0002B28D12E4B8A
:108050000A000C201B6804A9C7E72C4B1B68984733
:108060002C49C9F7DDFF2C4D0A00039104A8290013
:1080700007F0F2FF244B22001B6804A9092098474F
:10808000290003AA04A8FDF77FF92000039902F054
:10809000D7F8B1E71C4B0A000A201B6804A9A4E723
:1080A0008E221E491E48FF320AF0C0FFA4E7164B7D
:1080B00001350A000D201B68049504A995E7194BAA
:1080C0000122009305210023B6E7174B01220093FC
:1080D00006210023B0E70422691C03A8FBF7BEFEBB
:1080E000039A0D4904A807F0B7FFC0B2062805D0CF
:1080F000A4220A490D48FF320AF098FF024B2200E1
:108100000B201B6804A970E7649E000010070000A4
:108110000975031840420F00FE6E0418136F04180F
:10812000EC6E0418DF740318D5740318EE6E04188F
:10813000037807B50A000B2B0DD141780B00223BC9
:10814000DBB2022B08D80849CB5C01A90B70074BA6
:1081500007201B68984707BD0B1C902901D2044BD0
:108160001B787033DBB2F0E7BA6C0418649E000031
:10817000046F04180A4B10B51A00613211701A000E
:1081800041885A3211801A0081885C321180C2887D
:108190005E331A80417A034A0A30FFF7EBF810BDCC
:1081A000649E00004175031807B583780A0001A991
:1081B0000B70024B01201B68984707BD649E0000AE
:1081C00007B503780A0001A90B70024B08201B6851
:1081D000984707BD649E00000823F0B50D0099B0D4
:1081E00009020190194303220A331D48F9F732FAB4
:1081F0001C4E040073680027585DFF2820D003A997
:10820000FFF71EF9012217AB1B78134218D002ABFF
:108210009A8A019B1B889A4212D11621019802ABBF
:1082200008220230C918FBF70BFEB84208D1102211
:10823000601C03A9FBF712FE02AB9B7F013763743E
:1082400020002770F9F72AFA002F06D1062303A988
:108250000B702A0007203368984719B0F0BDC0465C
:10826000180E0000649E000073B506780D00012E04
:108270002DD0022E3ED0002E28D16B461E80294BD9
:108280000A001B6869460E2098476B461B88002B26
:1082900004D1254B6A4601930E2313806B460821B7
:1082A0001B882D020A3303229BB229431F48F9F78A
:1082B000D1F9002303706B461A88040042800199AB
:1082C0000430FBF7CBFD2000F9F7E8F973BD0B0292
:1082D00008210322194315480A23F9F7BBF90023A3
:1082E00004004380811C2A000F200E4B1B68984716
:1082F0002670E8E70B020821032219430B480A23E2
:10830000F9F7A8F906234380183383800023C3803C
:108310002D33FF330381034B0400811C2A001020FE
:108320001B68E4E7649E0000056F04180B0E000054
:1083300007B503780A0001A90B70024B11201B68D6
:10834000984707BD649E000007B50A006946037898
:108350000B71437812204B71024B01A91B6898479F
:1083600007BDC046649E000030B585B06B46DD1D7C
:1083700001230C002B700B4B0A000290039502A9FD
:1083800002201B6898472102E120082406230322CB
:10839000214300012D78F9F75DF90570F9F77EF9B1
:1083A00005B030BD649E000010B5034B0A0001000B
:1083B0001B680320984710BD649E000007B5037832
:1083C0000A0001A90B70024B05201B68984707BDE6
:1083D000649E000010B50C000121D1F76FFB07224D
:1083E00001002000FBF73AFD10BD000010B5084C5D
:1083F000206009F0A7FD2200072158321378606041
:108400008B431370FF2360342370FFF73BF810BDDC
:10841000649E0000002313B504008B7101AA0800BC
:108420000349FCF7B1FF2000019901F009FF13BDDA
:108430002C6F041810B50C00082100020143032220
:1084400006230648F9F706F91423037023884380AE
:10845000034B8380F9F722F910BDC0462B0E0000B4
:108460009042000037B51300094A0D0000920A003F
:108470000121040000F01CF8002D07D00549200060
:108480000B00503160331C70FFF7A4FF37BDC046AE
:1084900013750318649E000007B5044A0B00009290
:1084A0000421012200F004F807BDC0463575031809
:1084B000F8B50F000821000216001D000322014339
:1084C00022230748F9F7C6F8040029000770467010
:1084D000069B023098472000F9F7E0F8F8BDC04647
:1084E000140E0000F0B585B0050016001F00032231
:1084F0003A2301910F480721F9F7ACF8A4230400AF
:108500000370390045700230B0472000F9F7C6F813
:10851000019A02AB084803A91D715A7109F045FC84
:10852000002805D1A02205490548FF320AF07EFD4A
:1085300005B0F0BDA10D0000509E0000306F041882
:10854000496F0418002310B51900024AFFF7CAFF4B
:1085500010BDC046DD6403180623090210B5194397
:10856000048803220448F9F775F800230480438047
:108570000371F9F793F810BD180C00007FB50300E4
:1085800000780A000238112814D8FBF73BFC33337B
:1085900033333333131313131F2913131313091511
:1085A0006846598881805B7801A983710220164B47
:1085B0001B68984707B000BD6846598881805B7882
:1085C00001A98371104B03201B68F2E768465988A4
:1085D00081805B7801A983710B4B0B201B68E8E756
:1085E0006846598881805B7801A98371064B0C200D
:1085F0001B68DEE76846598881805B7801A9837132
:10860000014B0D201B68D4E7C89E000030B587B031
:108610006A4603880400138180780D0000F060FA38
:108620006B469872044B03342A0009201B6801949E
:1086300001A9984707B030BDC89E000070B50388F7
:1086400086B001ADAB8043880400EB8003790E0057
:108650002B72407900F044FA054B06346872320000
:10866000290008201B680194984706B070BDC046D9
:10867000C89E000070B586B0438801ADAB8083888A
:108680000400EB8080790E0000F02AFA054B0734D5
:10869000A8723200290007201B680194984706B091
:1086A00070BDC046C89E000070B5038886B001AD9D
:1086B000AB8043880400EB8000790E0000F010FAD4
:1086C000054B053428723200290006201B680194EE
:1086D000984706B070BDC046C89E000010B586B071
:1086E0006A4683880C0093804388D380831D02935D
:1086F0000378122B04D06022054906480AF096FC44
:10870000054B220004201B6801A9984706B010BD44
:108710008E6F0418506F0418C89E000010B586B004
:108720006A4683880C0093804388D380831D02931C
:108730000378132B04D05622054906480AF076FC2C
:10874000054B220005201B6801A9984706B010BD03
:108750008E6F04186E6F0418C89E00007FB50388E2
:108760000A0001A90B80034B0E201B68984707B035
:1087700000BDC046C89E00007FB503880A0001A95D
:108780008B804388CB80838806300B81034B01901C
:108790001B680A20984707B000BDC046C89E00006D
:1087A00010B503000088024A00F052F810BDC04620
:1087B0006DA9031810B503000088024A00F048F8BC
:1087C00010BDC04689A9031880880131401880B2C5
:1087D0007047000010B504000248F9F757FF024B3C
:1087E0001C6010BDCC9E0000C89E0000F7B50F00B5
:1087F00006211D0008AB1E880002B31D0192014333
:1088000003229BB20848F8F725FF0400019B3200C1
:1088100029000780468003710530FBF71FFB20000D
:10882000F8F73CFFF7BDC046140C000013B5049CDC
:1088300001941224009400F025F913BD10B5908026
:10884000917102481100F9F737FF10BDCC9E00006E
:1088500070B515000E001900094B040018680028B7
:108860000BD08288944209D983799B189C4205DCFD
:10887000013CA21A3300D2B2A84770BD0068EEE7EF
:10888000CC9E0000F0B50E2787B026200D00160004
:108890000393D9F747FF02ABFF180F2302AA9B18D7
:1088A0000D2202AC1219298800933B0000F0D8FE7B
:1088B00006233200040003991148F8F7CBFE2A88FA
:1088C00003000280002C0DD138780C380A2812D809
:1088D000FBF798FA060F110611060F1106110F008B
:1088E00000225A8018001C71F8F7D8FE002007B04B
:1088F000F0BD0222F5E7002203245A80F2E7C046C9
:10890000180C0000F7B51E006B460D001700991DEE
:108910006A4600230732288813700B70FEF701FAAD
:10892000062304003A0031000A48F8F793FE2B882A
:108930000380002C05D16B46DB79032B06D1013B6C
:1089400043800471F8F7AAFE0020FEBD4480032492
:10895000F7E7C046180C000070B515000A780E0045
:10896000122A19D11C0A2620D9F7DCFE2100D9F7DA
:10897000FAFE2A00010002230848F8F76BFE047093
:1089800073784370F8F78AFE2800F9F765FAFE213C
:1089900001402800F9F7F2F9002070BD032600001D
:1089A0000B7810B5122B01D1FEF708F9002010BD8D
:1089B000F0B5100085B00E000392F9F74DFA0400EF
:1089C000C620D9F7AFFE039B05001B0A601E727814
:1089D000DFB2082843D8FBF715FA350525252525EC
:1089E0002F2F2500002A11D19C002C196368204AE2
:1089F0000320191DDAF701F8021E07D161681D4A2C
:108A00000B1D02201631DAF731F802003900280078
:108A10000023FDF7BDFD01210398F9F7AFF9002010
:108A200005B0F0BD33780C2BF9D1130039002200CA
:108A30002800FDF781FDF2E733780C2BEFD1002AF7
:108A4000EDD0F2E73388102BE9D03378112BE6D044
:108A50000022094B110001201B689847DFE70092B4
:108A6000064A01201568337822000549A847D6E751
:108A7000E86C0418216D041854060000FC05000081
:108A8000A86F0418F7B51D0008AB1B7816000193FA
:108A9000099B124F0091002B01D03A881A800621C1
:108AA0002B0000020143C120083303229BB20001C6
:108AB000F8F7D0FD0400019B310003703B88C580AE
:108AC0005A1C4380009B3A8083802A000830FBF7C1
:108AD000C5F92000F8F7E2FDF7BDC046129F00007F
:108AE00003000120042B03D0103B5A42534158008D
:108AF00070470000F7B5100016001D000191F9F74E
:108B0000ABF9041E38D11420D9F70CFE019B0700E5
:108B10001988FFF7F9F8009008281ED87C68002C07
:108B200015D1009B290A3B7479743800D9F71BFED4
:108B30003200010001231F48F8F78CFD009B0370F1
:108B4000F8F7ACFD01213000F9F718F912E02379AC
:108B5000009A934215D02468E1E7062332002900E9
:108B60001548F8F777FD019B1B880380802303716C
:108B7000F8F794FD200003E0013C63425C41600093
:108B8000FEBD63793200290006330B48F8F762FD19
:108B900000260500019BA11D1B88067103806279D8
:108BA00042800530FBF75AF92800F8F777FD3000CE
:108BB000E6E7C04602140000140C0000F7B5FD20E3
:108BC00016001D000191D9F7ADFD0300009072332E
:108BD0001A88019B1F4F1C880120A41AE4B21E4969
:108BE0003B689847032C1DD03B68052C2CD10120F5
:108BF0001A499847019B29001C88320021231848F4
:108C0000F8F728FD1B22002300990500048042800C
:108C1000037179310530FBF721F92800F8F73EFDA3
:108C20000020FEBD019B29001C88320008230C484F
:108C3000F8F710FD0222002300990500048042800D
:108C4000037176310530E6E7220001200549984797
:108C5000E6E7C046FC050000D16F04180C7004184C
:108C6000140C0000F46F0418F0B5100089B01E0059
:108C700003910292F9F7F0F804900220049B03405C
:108C80000593049B034253D10E2704ABFF18059BA9
:108C900024303B80D9F746FD039B04AA19880D2395
:108CA00004009B180B2204A80093121807AB2000A5
:108CB00000F0D6FC051E00D091E004AA107B330A18
:108CC00007380F2800D989E0FBF79CF834888836EC
:108CD000888657888B880866880988730425DEB2E1
:108CE00031002000D9F73FFD08230100029A3E48D9
:108CF000F8F7B0FC002304AA83800B3306709B189E
:108D00001B78012783700D239B181B784770837194
:108D1000C570F8F7C3FC0221039BA676E7761B8893
:108D20000298A383049B1943C9B2F9F727F80020DE
:108D300009B0F0BD0125D2E70B230A2004AA9B1835
:108D40001B7858432418637A01243B803100029A2F
:108D5000A31D2648F8F77EFC0E210600039B220087
:108D60001B880571038004AB4480C9180530FBF7EC
:108D700075F83000F8F792FCD9E70B22052004A91A
:108D80005218127850430122C018400024186389F9
:108D9000134002243B80D9E70B22052004A9521876
:108DA00012785043C0184000241863899B07DB0FDA
:108DB000EFE70B22052004A9521812785043C0187F
:108DC0000D235B18197840238B40400024186289DA
:108DD00013405A1E9341DCE7022580E780250024DA
:108DE000B4E703257BE7C04604260000140C00000E
:108DF000F0B5002585B00091019302AB991DDD719E
:108E0000009B1400188802ABDA1D0D70FDF789FF76
:108E100007002420D9F786FC0600AF4208D102AB38
:108E2000DB79022B22D0032B22D0042B22D08027E7
:108E30002200AB1D01991E48F8F70CFC009B0400B2
:108E40001B88077103804580002F09D102AB0733CF
:108E50001B78022B10D102AB99797618B37E43713F
:108E60002000F8F71BFC002005B0F0BD0125DFE76E
:108E70000225DDE70725DBE7032B0DD1019B02AAC5
:108E8000190A761801360632F37F1278877113417A
:108E9000012213404371E3E7042BE1D102AB99793E
:108EA0000530C90004317118D9F79EFCD8E7C046D7
:108EB000140C0000F0B5FD208FB00F000492059354
:108EC000D9F730FC0300723306931A883D88A64E0A
:108ED000AD1AEBB20400A549012035680393A847F9
:108EE000039B032B00D1D8E0052B00D1EAE0022B35
:108EF00000D02DE10120BA7933689D499847BD79AA
:108F0000072D00D976E02800FAF77CFF041B2574B2
:108F1000677674853900F879102200010430201832
:108F20000831FAF79BFF0423049A059991483C887D
:108F3000F8F790FB04808570F8F7B0FB00200FB0C5
:108F4000F0BD39001022F8790831000144302018B2
:108F5000FAF784FF4EE00498F8F77EFF051E00D074
:108F600000E104980121F8F709FF22002600FD2006
:108F7000059B94321B0A1370397AFB797A7A0902BD
:108F80001943BB7A120411431B060B436366397BFA
:108F9000FB7A7A7B09021943BB7B120411431B063F
:108FA0000B43A3663B7CFA7B1B0213437036338072
:108FB00062882188520449041023520C490C000293
:108FC000F8F748FB231D036064344033436084603A
:108FD00033888381F8F762FBA5E73B7AFA791B02B5
:108FE0001343220020007432138000211B227930A9
:108FF000FAF750FF002596E72000FEF7DBFE43421C
:109000005841062306AAC001507309A92000137312
:10901000FEF798FEEEE77B7A3A7A1B021A43BB7A98
:10902000F97A1B0413433A7B039312027B7B1143AF
:10903000BA7B1B040B4312061A4306923A7CF97B57
:109040007B7C12021143BA7C1B040B4312061A43A9
:109050003B7D7D7D0792FA7C1B021A432D04BB7D6C
:109060002188154362881B06520449041D43520C93
:10907000490C14234048FE79F8F7ECFA039B067478
:109080008360069BC5600360079B4360F8F706FB9F
:1090900000210498F8F772FEACE7BB88022B04D0DD
:1090A000B4223649364809F0C1FFBA79012000924E
:1090B00034490322BB883568A8472000BA88763037
:1090C000B91D45E7BB7980200393230070331E88C8
:1090D00040013100C8F7ACFF80200D004001310095
:1090E000C8F796FF2B005A1E9341C018039B013806
:1090F000834202D1002D00D0AEB23300200003998C
:10910000FA1D01F08DFA6288218852044904520C3C
:10911000490C04231C48BD79F8F79CFA23007433EA
:109120001B8885700380F8F7B9FA07210120BB7905
:10913000DA080B40010099400B00A418793421781B
:109140000B430949DBB223700C681049A04751E773
:109150000399069B01201B8800913A8834680C49CA
:10916000A04747E7FE25DEE6FC050000C1700418B5
:10917000A7700418160C000003FD00003A700418D4
:10918000257004188870041802FD0000F37004189C
:109190006A700418F0B510008BB0069315000391A7
:1091A000F8F75AFE05900220059B03400793059BA4
:1091B000034255D10E27069B24301E0AD9F7B2FA76
:1091C00006ABFF18039B06AA19880F2304009B18FF
:1091D0000D2206A8009312183B00200000F040FA70
:1091E000079BA676E376039B04901B88A383002845
:1091F00024D13A78501F112800D9A4E0FAF702FED2
:1092000009A3A3A3A332A34B90A34BA34B90A34BBF
:10921000A39031002000D9F7A6FA032301002A0009
:109220004E48F8F717FA0D2306AA06709B181B780C
:109230004370039B9B798370F8F730FAE37E002B31
:1092400000D083E004332A0006994548F8F702FA73
:10925000039B1B880380049B8370F8F71FFA002090
:109260000BB0F0BD31002000D9F77DFA04230100D6
:109270002A003C48F8F7EEF90D230670032606AAEB
:109280009B181B7846708370039B9B79C370F8F71B
:1092900005FAE676D2E731002000D9F764FA039B9D
:1092A00001009B882A0008339BB22F48F8F7D2F9B7
:1092B00006700226039B46709A880D2306A95B1848
:1092C0001B78828083700F235B181B7807008371E3
:1092D000039B0730991DFAF7C1FD0E2306AA9B18C0
:1092E00018780C38082814D8FAF78CFD0513130CDD
:1092F000130F13131100FE703800F8F7CFF9022393
:10930000E3769BE70323FB70F6E70423FBE70023E8
:10931000F9E70022154B110001201B689847EBE785
:109320000F2306A95B180D2106A8091803981B78BE
:109330008779C0790978000238430090300000F046
:109340003BFC04907AE78023049377E70221059B96
:1093500028001943C9B2F8F711FD80E7092600007B
:10936000160C00000626000004260000540600002B
:10937000F0B587B003930023029204AA9371D371CE
:10938000130008880D000732991DFDF7CAFC041E62
:1093900031D12420D9F7C6F904ABDB790600032BC1
:1093A0003AD1E979AB7909021943012934D8039BF1
:1093B0001F271B0AC018019304AB9A79012393401D
:1093C0000130C7575BB2012923D13B43C3776B46BA
:1093D0001F7930003900D9F7C6F902230100029A3B
:1093E0000E48F8F737F9019B0770F3180133DB7F5C
:1093F0004370F8F753F9029A039904230848F8F7E1
:1094000029F92B8884700380F8F748F9002007B009
:10941000F0BD9F43C777DAE78024ECE7042400001F
:10942000160C0000002070470020704770B5050042
:1094300026200C001600D9F7BBF90100982006235E
:1094400003228001F8F706F9002302220470640069
:1094500004196380044B1A70FF2E02D0013265801C
:109460001A70F8F71BF970BDFD9D000000207047D1
:1094700070B5104B06001B780C00023BC568994282
:1094800005DB00220C4B110001201B689847E97F87
:10949000002909D000226300EB185A81012903D06A
:1094A000053464002C196281308A0021F8F766FCCB
:1094B00070BDC0460106000054060000704703005E
:1094C000002210B5C068DA60F8F786FA10BD000017
:1094D000F7B526200D0017000193D9F723F9041ED4
:1094E00005D11B4B020001001B6801209847194E53
:1094F00028783378013B83420DDC40243A000199FF
:1095000002231548F8F7A6F82B7844700370F8F793
:10951000C5F80020FEBDD0F797FA104B984210D046
:10952000E27F002A0BD0287869884300E31859812C
:10953000012A04D00530AB88400024186381002440
:10954000DCE733782A78013B89249342D6DCD4E7E0
:10955000540600000106000001260000FFFF000085
:10956000F0B50C00C17F06000020A14255D9162A93
:1095700053D8122A05D90A2161437118C979994231
:109580004BD9308B002C07D0B179401880B2012C18
:1095900002D0317C401880B20A25122A3ED8654399
:1095A0007519AB8801211C00801880B20C400B4259
:1095B00003D10F2A1ED9053880B202211C000C40AD
:1095C0000B4204D111001039022900D820000421D7
:1095D0001C000C400B4203D10A2A11D9023880B278
:1095E00008211C000C400B4217D18A420ED90238C8
:1095F00080B212E011000B390429DED82000DCE72C
:10960000110009390129EBD82000E9E7012A01D925
:109610000138EDE7012A00D12000F0BD6C430025A0
:1096200034194026217A411889B2E8B283420BD816
:10963000162A06D1402098400300A4880020234227
:10964000EBD1133A8818D3E73700AF40A088074220
:1096500003D1033189B20135E7E70431FAE70000AD
:10966000F7B51724078B1C7000240A251470147892
:10967000C67FA64201D98F4201D9802417E02E006F
:1096800066438619B679F619B14203DB0134B7B2E5
:109690001470ECE70024089E347016787543451961
:1096A0002E7AF619B14242DA8F4202D11C702000A4
:1096B000FEBDAD8808222E001640154206D00137A7
:1096C000BFB2B94202D1073A1A70F0E7FA1D92B25E
:1096D000914202D808318A1A07E0002E08D03A00D9
:1096E000083292B2914203D108221A700024DEE7B8
:1096F000680705D5023292B2914201D80B31EAE7F0
:10970000E80705D5053292B2914201D81031E2E75F
:10971000A80705D5033292B2914201D81331DAE796
:1097200000221A4B110001201B689847DEE7B4B2F3
:109730000194089C177826780A246743C719FC7996
:10974000B44207D9019C0334A4B2A1420DD816310A
:109750000C1B1C701B780024172BA8D10B4B22006C
:10976000210001201B689847A1E7BD884027B7402A
:109770002F4206D0019C0434A4B2A14201D116228A
:10978000B3E7089D01362E70D2E7C04654060000AC
:10979000F0B5DD4C99B0099020780D911E30012173
:1097A0000E930F92F8F78EF808220021069012A867
:1097B000FAF770FB1022002114A8FAF76BFB22784D
:1097C000002106981E32FAF765FB1E9B00241B78C9
:1097D000013B012B00D98134002305930C931E9B80
:1097E000059A1B78934200D816E1002C19D0162256
:1097F00000250D9B0CA91B8852181380069A138311
:109800001E9B1B78D37711AB1D701E9B1B78AB4240
:1098100000D8A7E1002C00D109E10698F8F7DCF8A0
:10982000BBE11423059A53431E9AD318DA780A939E
:10983000052A00D9F9E00A253F219C20059B40001C
:109840005D43069B14AE5D190A9B9B78EA710B4041
:10985000AB803C39F8F736F8059B12AA9B0098506C
:10986000059B9822DF00FD23BB51AB79A749073345
:10987000AB710790FAF7F2FA0A9B9B781A070BD59F
:109880008122B95952000A43BA51AA790799023282
:10989000AA710A9A528ACA815A070AD5059914A848
:1098A000CE00C021AA793758C9003943023231505D
:1098B000AA71DA0711D5059914A8CE00F821AA7962
:1098C00037580902394305323150AA71DA0604D5F6
:1098D000D021079A4901603251809A0711D5059924
:1098E00014A8CE00E021AA793758C90239430332BF
:1098F0003150AA719B0604D5D022079B52018833B0
:109900005A80AB792B7200230893AB799C460A9B53
:10991000DA78089B9A4208D80C9B6344DBB20C931C
:10992000059B0133DBB2059359E7089B1F219B0080
:109930000B931800059B13305E00012301408B4000
:1099400019004211B21814AF9200D359C000194344
:109950001F23D1510B9914314A1119401E3B8B40E2
:109960001900B2189200D35919431F23D1510B99F2
:1099700015314A1119401E3B8B401900B218920054
:10998000D359194363460333D151AB71079B20224E
:1099900018185F49FAF762FA1423059A53431E9A7E
:1099A000D318089A9B1803221B791A40022A2BD03D
:1099B000032A2CD0012A2CD10B99163148113618C4
:1099C0001F2001408A40B600F1590A434021F2515C
:1099D000AA790132AA71089A9140AA880A43AA80FA
:1099E000102213405A425341D0225B42DB0ADB0271
:1099F00052019B18089A0799053252018A18538020
:109A0000089B0133DBB27FE7E0231B01F2E7A023D1
:109A1000FBE700238124EDE7002C00D0E7E60C995A
:109A20000D98CAF734FE0400E1E68124DFE61E212A
:109A3000162014ABEA009A180E9B0B40039312A950
:109A4000AB005B5833490293099B1B8A00940CAC12
:109A5000019300192723CAF7E5FC0A236B43069AF2
:109A60000400D3180CAAD28A05939B799B180CAAE0
:109A7000D382002841D10300032229000698FFF772
:109A80006FFD071E05D1244B2200210001201B6819
:109A9000984714266E4333001E9A0E33D3180421C0
:109AA00000223800CAF704FE041E26D11E9B08229D
:109AB0009B1907939B7818001040134215D0230080
:109AC00029000698FFF74CFD041E05D1124B020039
:109AD00001001B680120984733001E9A1433D318E5
