:020000041803DF
:1040000000B00000CD5003184D0700004D07000020
:1040100000000000000000000000000000000000A0
:1040200000000000000000000000000071630318A1
:1040300000000000000000004D070000E107000044
:104040004D0700004D0700004D0700004D07000020
:104050004D0700004D0700004D0700004D07000010
:104060004D0700004D0700004D0700004D07000000
:104070004D0700004D0700004D0700004D070000F0
:104080004D0700004D0700004D0700004D070000E0
:104090004D0700004D0700004D0700004D070000D0
:1040A0004D0700004D0700004D0700004D070000C0
:1040B0004D0700004D0700004D0700004D070000B0
:1040C000FEE7000038B500F0F7F9054600F034FAD5
:1040D0000446002D15D0002C00D101E000F070FA4C
:1040E00000F0BAF900BF684600F0C3F900F0D3F958
:1040F000002805D068460078842108400028F2D0C6
:1041000000BF002C01D100F0E3F900F0F5FD002C18
:1041100001D100F01DFA002D05D000F098F9FF2024
:10412000013000F071F838BD0AE000BF084AD068DD
:10413000802302469A431A431146054AD16000BFC4
:104140000348C06880210840C0090028EDD17047AD
:104150000014024002480068401C01490860704792
:104160002C170000014600290CDB07480068CB062D
:10417000DB0E01229A401040002801D00120704738
:104180000020FCE70020FAE700E200E010B5022082
:10419000FFF7E8FF002808D1FFF7E4FF002804D16B
:1041A0000420FFF7DFFF002800D001E000F008FA4C
:1041B00013488068FF2109020840000A114908706D
:1041C00000BF0F4A9068420052080123DB071A43E0
:1041D00011460B4A916000BF00F004FB00F071F83B
:1041E00007484038406B7A21084305494039486305
:1041F00000F070FD00F04AF800F0C0F910BD0000BA
:1042000040140240BA160000401E0028FCD170473E
:1042100010B500F0B3F900F08FFB00BF0A4800684A
:10422000012109060840000E0028F7D100F00EF821
:1042300000F01EFD04484038406B7A218843024953
:104240004039486310BD00004014024000BF054AD9
:104250001068082302469A431146024A116000BFC3
:104260007047000040100240074841684807400F6F
:10427000042806D1F02008400009002801D10120BF
:1042800070470020FCE700000010024010B500203D
:1042900000F0DEFC10BD10B500F05AF900F0C4F8D3
:1042A00000F0AEFA00F04CFB00F0BEFA72B600F07F
:1042B000CAF800F0E6F86620FFF7A6FF00F008F95C
:1042C00010BD704772B6704710B50446602000F00C
:1042D0002FFA10BD70B504462546E878032229461A
:1042E00000F042FA70BD10B5044603222146442076
:1042F00000F03AFA10BD10B50446204600F028FA46
:1043000010BD10B50446204600F022FA10BD10B5CD
:104310000446204600F0CEF910BD70B5044625468F
:104320006A792879296800F0D1F970BD10B5044682
:10433000204600F0BFF910BD00BFEFF31081084622
:1043400072B67047002800D162B6704770B5054656
:104350000C4600F0FDF82046A84700F0B9F870BD03
:10436000F8B504460D462D48007800283ED000BF21
:10437000EFF3108000280AD000F0EAF800F086F889
:104380002846A04700F090F800F0A2F845E0FFF7BB
:10439000D3FF064600F0DCF800F078F82846A04786
:1043A00000F074FC074619200002FFF72DFF0120E2
:1043B0001B4908703046FFF7C5FF1A48844201D1F7
:1043C000012000E0072001460022384600F064FC8E
:1043D000FFF7B2FF064600F067F83046FFF7B2FF7E
:1043E00000200F49087000F073F816E0FFF7A4FFF3
:1043F000064600F0ADF800F049F82846A047012035
:10440000074908703046FFF79DFF00F04DF8002087
:104410000349087000F05CF800BFF8BDB316000057
:10442000341600008309000010B5B92000F080F9AF
:1044300010BD70B505460C46284600F083F82046AE
:1044400000F040F870BD10B500F0EAF810BD10B5EE
:104450007A2000F06DF910BD10B5752000F068F9F4
:1044600010BD10B5044601222146052000F02EF9AA
:1044700010BD10B5044601222146352000F026F972
:1044800010BD10B5AB2000F053F910BD10B50620DB
:1044900000F04EF910BD08B56846FFF7E2FF684628
:1044A0000078C007C00F08BD10B500BFFFF7F3FFCD
:1044B0000028FBD110BD00000148007870470000C3
:1044C00034160000014908707047000034160000DF
:1044D00038B500F031F8002800D038BDFFF72CFFC8
:1044E00004462021012000F0CFF9EB21684601703D
:1044F000807881088900891C684681708078042151
:104500008843011D684681708078082188434118DE
:104510006846817080781021884341186846817010
:104520002021417000F052F8012000F00BF82046E5
:10453000FFF708FF00BFD0E7014840787047000050
:10454000341600000149487070470000341600001E
:1045500010B5FFF7F1FF002800D110BDFFF7ECFE0A
:1045600004460021084600F08FF90020FFF7EAFF1B
:104570002046FFF7E7FE00BFEFE700000E48C069E6
:104580000121C9020840C00A002800D170470B4829
:104590008068C007C00F002800D1F7E7074800690E
:1045A000002801D000BFFEE704484068642801D21B
:1045B00000BFFEE700BFE9E700100240001C024018
:1045C000FFF780FE00BFFEE7002070474178114AE8
:1045D0009162017882785207D20F120301231B03E4
:1045E0001A40114382781207D20F12041B011A409D
:1045F00011438278D206D20F12051B011A401143D3
:104600008278120603231B061A401143014A5160A7
:10461000704700000000024000487047020204009A
:1046200010B500F01BF800200B49C862FFF7F4FF3B
:104630000949C86000F03CF840001E2108400649C6
:104640000861FFF7C1FFC0040F21C9040840813091
:104650000149086010BD00000000024000BF0E4A82
:104660009069130402469A431A4311460A4A91611B
:1046700000BF00BF906902469A431146064A916105
:1046800000BF00BF506A02469A431A431146024ACD
:10469000516200BF704700000010024000BF034895
:1046A0000068C00F0028FAD07047000000000240E8
:1046B0000220704710B50446024A0349204600F024
:1046C00055F910BD6D100000DD1000007FB50546E6
:1046D0000E461446002C02D0082C00DC01E0FFF747
:1046E0006FFF00960198000A0002E9B208430190AA
:1046F0006846007A04218843014668460172007AC0
:1047000008218843014668460172007A20218843C7
:10471000014668460172007A402188434118684684
:10472000017284810021C173FFF7C4FF7FBD0000C7
:1047300010B504462006000E0006401C034908611F
:1047400001204861FFF7AAFF10BD00008000024071
:1047500010B50446024A0349204600F007F910BD8F
:1047600095110000FD1100007FB505460E46144668
:10477000002C02D0042C00DC01E0FFF721FF0096A2
:104780000198000A0002E9B2084301906846007AE5
:1047900004218843014668460172007A0821884353
:1047A000014668460172007A202188430146684626
:1047B0000172007A40218843411868460172848161
:1047C0000021C173FFF7C4FF7FBD70B50B460446DF
:1047D00003E01D7825705B1C641C1546521E002DDD
:1047E000F7D170BD044880680721C9068843034992
:1047F0000843014988607047401402408A008A08D3
:104800000648806871210840002803D00448034905
:10481000086002E003480149086070474014024004
:10482000088000000AA0000010B5164B186800218F
:1048300000220123DB050340002B03D00223194390
:104840001B031A4301235B060340002B03D00823FC
:1048500019431B031A430B4B1B688B431343094C2F
:10486000236000BF074B18680123DB050340002BC2
:10487000F8D101235B060340002BF3D1014C2360E8
:1048800010BD00004014024030B585B004460D460E
:1048900004A800900198000A0002EB3001900198F2
:1048A000C0B201906846007A81088900491C6846B8
:1048B0000172007A04218843011D68460172007A62
:1048C00008218843411868460172007A1021884304
:1048D000411868460172007A2021884341186846D1
:1048E0000172007A40218843A10140221140014316
:1048F00068460172012181818573C173FFF7DAFE79
:104900006846007C3C2800D101E0FFF759FE05B065
:1049100030BD00000649086880F3098800BF0549DA
:10492000087880F31488BFF36F8F00BF70470000D2
:10493000B4160000B816000010B5FFF753FF10BD05
:104940004046494652465B46FFB500F06DF90860A7
:10495000FFF75EFC30BFFFF7DDFFFFF717FCFFBC82
:104960008046894692469B4600BD0000FEB504463F
:104970000E46174601200190A089042803DC257B00
:10498000002001900CE020788007800F002805D0DF
:1049900020788007800F0421081A00E00020C5B2AB
:1049A000002D03D10C48864200D10425FFF7C4FC3A
:1049B0000090A07B09498862E37B29462046019A42
:1049C000B047E27BA3895B1B99B223685819B847AB
:1049D0000098FFF7B7FCFEBDDD10000000000240AC
:1049E0007CB505460C461646B002012189020840F6
:1049F0000721090440181030144908610FE0112004
:104A0000124948612046083884B2FFF747FE0F4834
:104A1000006A28600D482030406868600835082C1E
:104A2000EDDC002C11D0012008494861FFF736FE6B
:104A30000648006A009005482030406801902246F0
:104A400069462846FFF7C1FE00BF7CBD80000240DA
:104A5000F8B504460D4616461F4620790006000E9E
:104A60000006217A4906C90F0843B90201229202C1
:104A700011400843217A0907C90F49000222114059
:104A80000843217AC906C90F49021202114008439E
:104A9000217A89030322920311400843217A4907AE
:104AA000C90FC900082211400843217A8906C90F9D
:104AB0008900042211400843691E090407221204D8
:104AC00011400843002D01D0012100E0002109011F
:104AD0001022114008430B4908616068000A886190
:104AE000300110210840401C06494861FFF7D6FDFF
:104AF0000448006A00902A4669462068FFF765FE70
:104B0000F8BD00008000024070B505460C46164610
:104B1000B002012189020840032109054018203014
:104B20001249086109E0114928688862112048612A
:104B30002D1D201F84B2FFF7B1FD042CF3DC002CE7
:104B400012D0B002012189020840611E0905072226
:104B50001205114008432030044908612868886222
:104B600001204861FFF79AFD70BD000080000240FF
:104B7000F8B504460D4616461F4620790006000E7D
:104B80000006217A4906C90F0843B90201229202A0
:104B900011400843217A0907C90F49000222114038
:104BA0000843217AC906C90F49021202114008437D
:104BB000217A89030322920311400843217A49078D
:104BC000C90FC900082211400843217A8906C90F7C
:104BD0008900042211400843691E090507221205B5
:104BE00011400843002D01D0012100E000214901BE
:104BF0002022114008430B4908616068000A88615F
:104C00002A4668462168FFF7E0FD06490098886259
:104C1000300110210840401C02494861FFF73EFD69
:104C2000F8BD00008000024000BFEFF31480064989
:104C3000087000BFEFF309800449086000BFEFF37C
:104C40000880002170470000B8160000B41600006C
:104C500005494968054A11400201044BFC331A43D7
:104C60001143014A516070470010024008FFFF7F66
:104C700004484068044908400349F9314018014993
:104C8000486070470010024008FFFF7F014800683D
:104C9000704700002C1700000FB4F8B505460E460B
:104CA000AC1900BF089800280BD009A800900899FB
:104CB00000988847002804D00020F8BC08BC04B045
:104CC0001847FFF7E3FF011B00BF0029EADB0120C3
:104CD000F3E70000002009E00649496BC90F0029ED
:104CE00000D004E0282800D901E0401CF4E700BF10
:104CF000704700000014024003B40148019001BD58
:104D0000B1D4031879C1031815C0031814000000AA
:104D100000000000FF0000000D88031889860318BA
:104D200031C2031825C20318FF000000BD88031814
:104D30000000000045890318E18803180000000006
:104D40000000000000000000000000000000000063
:104D50000000000000000000818D0318198C03186A
:104D600021A6031800000000000000000000000061
:104D700000000000A18F0318198E0318E58D031899
:104D8000E58E0318DD8F03186D8F0318C017000020
:104D9000C01B00000000000001000000E023000034
:104DA000E0270000000000000100000000300000CB
:104DB00000340000000000000100000005A20318FC
:104DC00011A5031869A50318C5A50318D9A40318CC
:104DD00061A3031841A303180000000000000000B5
:104DE00000000000000000000000000000000000C3
:104DF00000000000000000000000000000000000B3
:104E000000000000000000000000000000000000A2
:104E10000000000000000000000000000000000092
:104E20000000000000000000000000000000000082
:104E30000000000000000000000000000000000072
:104E40000000000000000000000000000000000062
:104E500000000000C017000000000000000000007B
:104E60000000000000000000000000000000000042
:104E70000000000000000000000000000000000032
:104E80000000000000000000000000000000000022
:104E90000000000000000000000000000000000012
:104EA0000000000000000000000000000000000002
:104EB00000000000000000000000000000000000F2
:104EC00000000000000000000000000000000000E2
:104ED00000000000E02300000000000000000000CF
:104EE00000000000000000000000000000000000C2
:104EF00000000000000000000000000000000000B2
:104F000000000000000000000000000000000000A1
:104F10000000000000000000000000000000000091
:104F20000000000000000000000000000000000081
:104F30000000000000000000000000000000000071
:104F40000000000000000000000000000000000061
:104F50000000000000300000D19F03188D9F03184F
:104F6000FD9F0318319C03183DA10318FD9E0318F3
:104F7000D5880318CD88031800010000F9890318AB
:104F8000118A031800000000E1A103188D92031894
:104F9000FD970318D19803180000000000000000DE
:104FA0000000000000000000000000000000000001
:104FB00000000000000000000000000000000000F1
:104FC00000000000000000000000000000000000E1
:104FD00000000000000000000000000000000000D1
:104FE00000000000000000000000000000000000C1
:104FF00000000000000000000000000000000000B1
:1050000000000000000000000000000000000000A0
:105010000000000000000000000000000000000090
:105020000000000000000000000000000000000080
:105030000000000000000000000000000000000070
:105040000000000000000000000000000000000060
:105050000000000000000000000000000000000050
:105060000000000000000000000000000000000040
:105070000000000000000000000000000000000030
:105080000000000000000000000000000000000020
:105090000000000000000000000000000000000010
:1050A0000000000000000000000000000000000000
:1050B000000000000448854600F002FF0048004759
:1050C00061F40318C046C04600B00000014CA04780
:1050D000014C20477DC20318B5500318F0B51FB42A
:1050E0000646002082B005464024019100901BE056
:1050F000019922460F46304600F0D8F9049A059BE4
:10510000801A994110D310461946224600F0BEF984
:10511000361A8F410197224601200021009F00F09E
:10512000B5F938184D4100902046641E0028DFDC98
:10513000019B00982946324607B0F0BDF0B51FB478
:1051400086B000200090019002900698069980B2E7
:1051500004900798090C02040014114307900027DB
:10516000089D099806913E463C4603900398A9B2D3
:105170000204000C039004982D0C154348430021B1
:10518000224600F083F9C719714110340E46402CB5
:10519000ECDB3846029A00F079F9009A019B8018FE
:1051A0000090594102980191103002904028CCDBC8
:1051B00000980BB0F0BD00000549064A086850434E
:1051C000054A801808604008704701490860704728
:1051D000341700006D4EC6413930000003460B43C2
:1051E0009B0703D009E008C9121F08C0042AFAD29D
:1051F00003E00B780370401C491C521EF9D2704723
:10520000D2B201E00270401C491EFBD2704700225E
:10521000F6E710B513460A4604461946FFF7F0FFB5
:10522000204610BD03460A780270401C491C002A23
:10523000F9D11846704700000FB400B58DB0099041
:105240000B9010A900200091C0430A9000200C9000
:1052500006480690064807906A4609A80F9900F08C
:10526000B5FC0DB008BC04B018470000ED5B031896
:105270000D5C0318F0B51FB488B00B990998002491
:1052800048400999C00F490049080991C0070B9986
:105290000090490049080B9109990898A6460843CF
:1052A0001CD00B990A98084318D009980124400093
:1052B000420D4800410D099824050003000B2043CE
:1052C00009900B980003000B20430B9050181C49C9
:1052D0004018002201901446104605E000200146C7
:1052E0000DB0F0BD032801DA034600E003239C461D
:1052F000C11A0AAE0AE05F0008ADED5B4F00F75B34
:105300007D430027AA187C41491C5B1E6145F2DDE4
:10531000410004AB5A522104120C0A43240C401CD5
:105320000828DFDB019802900099704601910090F7
:10533000059B049A0799069800F087FCD0E70000C7
:105340000DFCFFFFF0B50C465C4085B0E40FE407B0
:1053500003944C000026640859009446490802460C
:105360000296224321D062460A431ED06200570DA6
:105370004A000E032303550D012402462C4924053F
:10538000781B1B0B360B40182343264361460090C5
:105390001C46501AB44103D30098401C009002E010
:1053A000921800985B41002803DA0020014605B0FE
:1053B000F0BD0020012109050746864611E064463C
:1053C0001D46141BB54106D36546521BB3417446B6
:1053D00007430C43A646CD074008490828439218C6
:1053E0005B4105460D43EAD11046184313D0604691
:1053F000194650407140084306D06046101AB34128
:1054000006D20122002306E000220123DB0702E08E
:105410000122D2435310009874460105381C6141A3
:10542000029C039D0019694100F002FCBFE70000E7
:10543000FD0300000EB505490291002100910A46C6
:105440000B46019100F001FC03B000BD33040000E5
:105450004A0009030123090B1B051943094B10B529
:10546000520D9A4201DA002010BD064B34339A42A5
:1054700003DC9A1A00F01AF810BD0349511888404D
:1054800010BD0000FF030000CDFBFFFF10B5202A78
:1054900004DB0146203A9140002010BD91402023BA
:1054A0009C1A0346E3401943904010BD10B5202AD2
:1054B00004DB0846203AD040002110BD0B46D34003
:1054C000D0402024A21A91400843194610BDFFB5D0
:1054D0000025ED4385B00020009001909F685E6834
:1054E0001C46A1696D1C069888470290216A88476E
:1054F0000028F6D10298401C0CD0032040028643BD
:10550000002F19DD700614D502982B2809D02D28FC
:105510000FD103E00020C04309B0F0BD012080029C
:105520000643A1696D1C069888477F1E0290002FD4
:1055300002DD0298302803D00798002828D024E004
:10554000012040020643A1696D1C7F1E0698884712
:105550000290002F03DD782805D0582803D0079843
:10556000002810D011E00798002801D010280CD195
:10557000012040028643A1696D1C7F1E0698884762
:105580000290102000E008200790C017039016E05A
:105590000A20F9E70120400206437F1E039B079A79
:1055A00001990098FFF7CAFD029AD3178018594154
:1055B00001910090A1696D1C069888470290002F08
:1055C00006DD0799029800F0A7FC02900028E1DAB6
:1055D000E16906988847B00502D40120C0439BE7E3
:1055E000F00710D1700610D5700505D50098019B05
:1055F000002241429A4101E0019A00992068031D6E
:105600002360006806C0284686E72068011D2160E7
:105610000068019A0099F5E7FFB50027FF4383B0C2
:1056200000205C6801909E681D46A9697F1C049853
:1056300088470090296A88470028F6D10098401CC6
:105640000CD0032040028443002E19DD600614D5DF
:1056500000982B2809D02D280FD103E00020C0434B
:1056600007B0F0BD012080020443A9697F1C0498A3
:105670008847761E0090002E02DD0098302803D067
:105680000598002825D035E0012040020443A9698F
:10569000761E7F1C049888470090002E03DD782832
:1056A00005D0582803D00598002810D022E005988E
:1056B000002801D010281DD1012040028443A9698F
:1056C000761E7F1C049888470090102002E0082076
:1056D00000E00A2005900DE0012149020C43059AE3
:1056E0000199761E514308180190A9697F1C0498FE
:1056F00088470090002E05DD0599009800F00CFC0D
:105700000028E9DAE96904988847A00502D4012055
:10571000C043A5E7E00722D1600611D560050198D6
:1057200000D5404229680A1D2A600968220501D572
:10573000087014E0220701D5088010E008600EE030
:105740002868011D29600068210502D501990170B2
:1057500005E02107019901D5018000E0016038468C
:105760007EE7FFB5002083B00090506801909169FA
:105770001446002697680498884705460C990698B1
:10578000084305D009E0A169761C049888470546BE
:10579000216A284688470028F5D1681C03D0019863
:1057A000C00704D017E00020C04307B0F0BD206858
:1057B000011D2160006800900DE00198C00704D130
:1057C000009805700098401C0090A169761C7F1E0F
:1057D000049888470546002F1CDD681C1AD00698DF
:1057E00000280FD0E817C00E401941118A00069911
:1057F0004009511840012A1A0968012090400142CD
:10580000DBD107E00C980028D7D1216A28468847C9
:105810000028D2D0E169049888470C98002807D165
:10582000002E05DD0198C00702D10098002101700B
:10583000A068B84204DD0C98002804D0002F02D0E4
:105840000120C043B1E73046AFE70000FFB508785C
:1058500089B01546FF2805D0491C2D2804D0002208
:10586000002407E000240BE00122F9E70A235C434F
:105870000419491C0878FF28F8D1002A00D0644296
:10588000002004902A7801462D2A01D02B2A0FD11E
:105890006D1C2D2A02D00022049209E00122FBE7B0
:1058A00000260A2233466D1CFFF748FC3818714168
:1058B0002F78FF2FF4D10C9AA218069202460A43C1
:1058C00004D0FF23069A9133DA4205DA00210998C1
:1058D0000A4606C00DB0F0BD0024B74AB54D2646B5
:1058E000079200F0C7FC029006980391002801DAA5
:1058F000474200E0074639050020AF4A001C5141ED
:105900000191009012E0F80707D022462B4630465E
:105910000799FFF7AFFC0646079122462B46104633
:105920001946FFF7A7FC04460D467F10002FEAD169
:105930000698019B0028009A0399029806DAFFF75F
:1059400001FD3246079BFFF7FDFC05E0FFF792FCE7
:105950003246079BFFF78EFC049A002A02D00122F0
:10596000D2075140099A03C2B4E7FFB591B00020B5
:1059700009900025ED432E209E685C681F4601902B
:10598000B9696D1C129888470090396A88470028C9
:10599000F6D10098401C0AD00D20C0018443002E8F
:1059A00012DD00982B2809D02D280DD103E000200E
:1059B000C04315B0F0BD012080020443B9696D1CDD
:1059C00012988847761E009003A9600501D52D2006
:1059D00000E02B206A461073491C0CA80F9102901E
:1059E0000AE0B9696D1C12988847009001204002B6
:1059F00004431398761E0560002E02DD00983028BF
:105A0000EFD001990098884246D18020044308E0F5
:105A10000998401E09900120400204431399681C14
:105A20000860B9696D1C761E12988847009030286E
:105A3000EED031E00199884205D1200603D48020C0
:105A40000443761E1EE0009807F008F8002826D0D0
:105A500001204002044307A90F980331761E8842B3
:105A60000BD200980F99303808700F98401C0F9097
:105A7000200607D50998401E03E0200602D40998A5
:105A8000401C0990A00502D51399681C0860B969EB
:105A90006D1C129888470090002ECBDC59E0002E38
:105AA00057DD0098652801D0452852D1A00550D572
:105AB000032000028443B9696D1C761E1298884742
:105AC0000090002E0CDD2B2804D02D2808D1FF20BB
:105AD00001300443B9696D1C12988847761E009006
:105AE000E00501D52D2100E02B21029801700298DC
:105AF000401C0290019025E00120400204430EA9C1
:105B000002980131761E88420ED2009802993038F0
:105B10000006000E087003D10299019881420AD94B
:105B20000298401C029006E0E00501D5234801E000
:105B3000224840420990B9696D1C1298884700902C
:105B400013980560002E04DD009806F087FF0028FA
:105B5000D2D1F969129888470F99FF2008700299ED
:105B600003AA087000200A900B900CA90AA8099BB0
:105B7000FFF76CFEA00502D40120C04319E72420E2
:105B8000044209D0E00713D138680B9A0A99031D23
:105B90003B60006806C00BE00B990A9800F078FBA8
:105BA0000146E00704D13868021D3A6000680160D0
:105BB0002846FEE6000014400000F03FF1D8FFFF49
:105BC00002681378511801601846704710B5D1600B
:105BD000044951610449116200211161114600F02C
:105BE000ABF910BDC15B03180B5F03184268002AB4
:105BF00008D001680B78491C002B03D0521E06C048
:105C0000184670470121C160881E70474268002A0B
:105C10000BD0C3680168002B07D183688B4204D086
:105C2000491E521C06C0002070470020C043704728
:105C300010B5002B08DA0024401C614192185B412A
:105C40001A4301D14008400010BDF0B51FB482B026
:105C500005460C0003D0084606F004FD02E006F0FD
:105C600001FD20300246009021462846FFF70EFC39
:105C7000049B059A04460F4618431143084314D069
:105C8000184610431BD0009840210A1A184605995F
:105C9000FFF70CFC05460E46009A05990498FFF79D
:105CA000F5FB084305D0012004E02046394607B043
:105CB000F0BD0020C11705430E432C433743009924
:105CC0000E986305401A7905E40A00220C43FD0A88
:105CD0000A3002D500200146E9E7010510196941A3
:105CE0000C9C0D9D00196941FFF7A2FFDFE7000042
:105CF000F0B507460846584087B0C00F04904800EA
:105D00000E46590040084908BC1A884105D2384659
:105D100031461E4617460B460246580040081043BF
:105D20004DD0300D039040055900400D490D0590B0
:105D3000401A0290402873DA18030121000B09056C
:105D40000843019004980092002806D01146019A59
:105D500049420020904100910190029840210A1A86
:105D600001990098FFF792FB05460C466B4607CB5E
:105D700000F0B8F8C0197141039A0E0D0023D7172F
:105D800056401A467A40164344D0049A002A2DD031
:105D9000029A012A039A15DC1205C01A91410126C4
:105DA0003605001C7141D20F059ED2070093019267
:105DB00002962A462346FFF748FF07B0F0BD384653
:105DC0003146FAE71605234A0F46B218C01AB74102
:105DD00001210905001C4F4100187F411146181888
:105DE0007941E20F10436D19644113E0E2076D0839
:105DF00015436408C2071443039A01261205C01A0A
:105E000091413605001C7141CE07400830434908D6
:105E1000C01851412A462346FFF70AFFCDE7FFE7A6
:105E2000049801224000C117121A00238B410498E4
:105E30003146C417381AA141EEE730B40124E40713
:105E4000634030BC54E730B40124E407614030BC07
:105E50004EE700000000E0FF4A0009030123090BA0
:105E60001B0519430A4B10B5520D9A4202DA002065
:105E7000014610BD064B34339A4203DC9A1AFFF7F1
:105E800015FB10BD034BD218FFF700FB10BD00003F
:105E9000FF030000CDFBFFFF10B5002904DB012448
:105EA000E40740428C412146002B04DB1C460123C1
:105EB000DB075242A341994200D1904210BD00003D
:105EC000064C0125064E05E0E36807CC2B430C3C4D
:105ED00098471034B442F7D3FFF7F0F89C2B04181E
:105EE000DC2B041810B5202A06DBCB170846203A15
:105EF0001041C1170B4306E00B461341D04020244C
:105F0000A21A91400843194610BD10B50F21C0B226
:105F1000490200F0D9F910BD3A2800D230382023C8
:105F200002469A43412A01D310463738884201D3AA
:105F30000020C04370470000F3B58DB000200A90E8
:105F400001200B90002608460C300C46099062692F
:105F5000012109989047051E2ED0252D2DD0216AAC
:105F60008847002818D06269012109989047216A62
:105F700088470028F7D1411E62690998904700E0E0
:105F8000761CA1690D988847216A88470028F7D1B7
:105F9000E1690D988847DAE7A1690D9888470746B7
:105FA000A84201D1761CD2E7E1690D9888477F1C91
:105FB00002D10A98002877D04AE1002762693D465D
:105FC0003946099890472A280CD16269012109981D
:105FD0009047012506E00A214F433F18303FEBD49C
:105FE0001020054362690121099890470146303924
:105FF0000A2903D29C498F42DEDCECE7E90600D493
:106000009A4F6C280AD04C2810D0682824D06A28CF
:106010002ED074280CD07A280AD00DE062690121B4
:10602000099890476C2823D004211CE020200543C8
:106030006269012109989047A760656065284FD083
:1060400026DC582839D01ADC452849D012DC25280E
:1060500034D04128B0D143E06269012109989047CA
:10606000682802D008210D43E6E70120C002DEE7E0
:106070000220DCE7462833D047282CD130E05B28CB
:1060800070D061282CD063286CD0642823D161E0C3
:106090006F284FD009DC662822D0672820D06928D5
:1060A00026D06E2817D12EE0CEE070284DD0732870
:1060B0006FD075284ED078280DD154E0A1690D9885
:1060C00088470546252800D16CE7E1690D98884787
:1060D0006D1C00D16DE7BBE00A224CE00A2252E0C1
:1060E000012023466A46C0430D99FFF73EFCA4E019
:1060F0002846402108436060A807234601D50022B6
:1061000039E000223FE0E80700D020E72068011DC9
:1061100021600068290501D5067018E7290701D517
:10612000068014E7A90703D5F117066041600EE762
:1061300006600CE72846402108436060A807234614
:1061400001D5082217E008221DE0494928460840E9
:10615000606016E02846402108436060A807234697
:10616000BCD5B9E715E02846402108436060A80780
:1061700007D5234610220120C0430D99FFF7A7F948
:106180005BE0234610220120C0430D99FFF744FA3B
:1061900053E000210C910B460091632802D05B284C
:1061A00008D044E02079C00601D40120A06001207D
:1061B00000903CE062690121099890475E2805D172
:1061C00001200C90014662690998904721690029D5
:1061D00006D10B4601AA8F00491CD3510829FADBCE
:1061E000002835D0216900290ED1C117C90E091820
:1061F0004A11930001AA9A1849094901411A01203C
:10620000136888400343136062690121099890472D
:106210005D28E5D10C98002808D0002001AB810052
:106220005A58401CD2435A500828F8DB01AB0120D1
:106230002246C0430D99FFF794FA00280ADA401C61
:1062400006D10B98002803D00020C0430FB0F0BD4A
:106250000A98FBE7E90702D10A99491C0A91361806
:1062600000200B9073E60000CCCCCC0CFFFFFF7F2E
:10627000F1F7FFFF0EB5054A029200220092134685
:106280000192FFF7E2FC03B000BD00003304000000
:10629000CB0FDB07490010B5490802460A4307D077
:1062A0000A0D07240903E401090B121B002A01DC73
:1062B000002010BDC900440F0C43C100E018D205F6
:1062C000801800F013F810BD7F2801D9002207E0E4
:1062D000054B42089A5CC00700D112091207120F41
:1062E0000120904008407047C4270418002904DAB0
:1062F000401C490001D140084000704770B40024A0
:10630000050C05D11024000402D1002921D011244C
:10631000050E01D100020834050F01D10001241D32
:10632000850F01D18000A41C002801DB4000641C03
:10633000002908D020252E1B0D46F540A14000D095
:1063400001212943084301061B1B000ADB1D02D55E
:10635000002070BC7047DB05181880180029F8DA97
:10636000401C4900F5D170BC400840007047000057
:1063700004207146084202D0EFF3098001E0EFF3F8
:10638000088001490847000001C20318024B1B891D
:106390000380002383707047349200000020704710
:1063A00000207047F7B51F00174B15001C780090B0
:1063B0000191032C04D0042C01D103221A70F7BDE3
:1063C000124E3378002BFAD02620DCF7F1F92B009F
:1063D0000100220008330E48FBF73CF900230400BB
:1063E000C370009B2A008371ABB283800199077050
:1063F00087700730FDF732FD2000FBF74FF9337847
:10640000013B3370DBE7C046F9910000F8910000D2
:106410000226000070B588B06B46062602AC22004A
:106420000120D91DDE71002501F0B2FCA84214D074
:10643000022104A809F0A2FE320004A92000FDF701
:106440000DFD402362795B42134363716B4622006A
:106450000120D97901F00EFD01351023210004201F
:1064600004AA237001F094FC002811D1002D18D14A
:106470000D490320FBF726FC0322072101230B48CB
:10648000FBF7E8F801230370FBF708F908B070BDCB
:10649000042104A809F072FE0420217804AA01F066
:1064A000E9FC01F00FFDE3E770290418020D00007C
:1064B00070B505000C001E00032A04D0D8229449B0
:1064C000944808F0ABFE280A310A242800D15CE188
:1064D00011D80B3883B2092B17D8092815D8FDF726
:1064E000A5FC41017000B20021001400140014004A
:1064F000140014004901C72800D142E107D826281A
:1065000000D140E1C62800D141E1002070BDC8287B
:1065100000D131E1804BFD28F7D1210028001B6814
:106520009847F2E77D4B9D4213D87D4BE8181B2816
:10653000EBD8FDF75DFC161AEA1EEAEAEAEAEA423F
:106540003EEAEAEAEA36EA3AEA22EA26EA2AEA2EC3
:10655000EA32E3231B019D42D7D1200001F062F90A
:10656000D3E7200001F052F8CFE7200001F070F8E7
:10657000CBE7200001F086F8C7E7200000F088FF95
:10658000C3E7200000F0D0FEBFE7200001F092F842
:10659000BBE7200001F082F8B7E7200001F07CF9AA
:1065A000B3E7200001F04EF9AFE7200001F06AF9EF
:1065B000ABE7200001F0C6F8A7E7200001F026F9BC
:1065C000A3E7584BE81817289FD8FDF711FC0C9E3D
:1065D000109E14181C209E249E9E282C9E9E9E9EDB
:1065E0009E309E349E38200001F0FAF98DE720009D
:1065F00001F0E6FA89E7200001F088FA85E720003B
:1066000001F06AFA81E7200001F04AFA7DE72000F4
:1066100001F02EFA79E7200001F0E0FA75E720009A
:1066200001F08EFA71E7200001F0AAFA6DE7200070
:1066300001F0E8FA69E7200001F0EEFA65E72000D2
:1066400001F0BCF961E7384B9D4200D95DE7374B5B
:106650009D421AD8364B9D4270D0364B9D4253D046
:106660001C3B9D4200D050E72378AA2B00D94CE771
:106670009F2B16D8032B26D0172B39D0012B00D0F7
:1066800043E7607800F0FAFC3FE72B4BE81804285A
:1066900000D93AE7FDF7C0FB56005A0039FF5E000B
:1066A00062001800A0380A2800D92EE7FDF7B4FBD5
:1066B0000F000F000F000F00140018002DFF1C002A
:1066C0002DFF24002800607800F036FD1DE718003B
:1066D000617800F04FFC18E7607800F055FD14E792
:1066E000607800F083FD10E7607800F069FC0CE74B
:1066F000607800F0D9FA08E7607800F0E3FC04E77E
:10670000607800F02DFD00E7200000F081FCFCE641
:106710009C29041888290418F09200001B0E000020
:1067200000F2FFFF00F4FFFFA80D0000A30D000022
:10673000150D00001C0D00005CF2FFFF200000F0B2
:10674000A5FAE2E6200000F0EDFBDEE6200000F016
:10675000EFFBDAE6200000F043FCD6E6200000F074
:10676000A1FCD2E60D4B9D4200D0CEE6200000F009
:106770003FFDCAE60A4BD0E62100280001F0C0FC2C
:10678000C3E6084BC9E6084BC7E6084BC5E6084B0D
:106790000A00280021001B689847B6E6010B00009C
:1067A000EC920000F8920000F4920000E8920000E1
:1067B000E492000070B505000C0064290CD8242078
:1067C000DBF7F6FF0223010003220448FAF742FF39
:1067D00005704470FAF762FF70BDC04602240000E5
:1067E00000207047002070470020704710B5062237
:1067F000FDF726FB43425841C0B210BD10B50D2035
:10680000134906F0BDFD134C1E20210006F0B8FD13
:1068100021001F2006F0B4FD2100032006F0B0FD8A
:106820002100132006F0ACFD01F014FB0A4B0B4ACB
:106830000B481A600B4A5A600B4A9A6001F02AFA18
:1068400009F000FCF9F7B8FF00F016FB10BDC046D8
:10685000C1850318510700000C060000917D031844
:106860001C060000757E03184D7D031810B5DFF778
:10687000CDFEFAF753FB10BD9422114BD2031A60E0
:10688000104B114A1A60114B114A1A60114B124AEF
:106890001A60124B124A1360124A1360124A1360B4
:1068A000124B134A1A60134B134A1A60134B144AC3
:1068B0001A60144B144A1A60144B154A1A60704738
:1068C000700000507400005020500000780000500C
:1068D0004000C0C87C00005000E400E473024600A1
:1068E0008000005084000050880000508C00005050
:1068F0007302000090000050021C1C009400005025
:10690000020E0E0098000050362664039C000050D2
:106910001600030310B5304A1368002BFCD0A023E7
:106920002E4ADB051A602E4B2E4A2F4C1A60226825
:106930002E4B1A60228C2E4B1A6000222D4B1A60AF
:10694000FFF79AFF2C4B2D4A2D481A6062682D4B99
:106950001A60A2682C4B1A60E2682C4B1A602269FC
:106960002B4B1A6062692B4B1A602B4B2B4A1A6017
:10697000702301780A1D5A4302315432FF32C9B2E2
:10698000090492080A4326490A60618C254A11606D
:106990001021254A11600278111D4B430321543305
:1069A000FF338B43911C0C224A4303329B181F4A2E
:1069B0009B081278120413431D4A1360A28C1D4BCE
:1069C0001A60A2691C4B1A60E2691C4B1A60E28CC7
:1069D0001B4B1A6010BDC046040000500707100092
:1069E0000C0000501E000100009200001800005032
:1069F000280000502C000050E00000502C017C01C9
:106A000001060000E4000050E8000050EC000050D7
:106A1000F0000050F400005020010050D90296FF11
:106A200030010050340100503801005003060000CE
:106A30006001005064010050680100506C0100507A
:106A400080010050124B1A68124B1A60124A1268E9
:106A50005A60124A12689A60114A1268DA60114A42
:106A600012681A61104A12685A61104A12689A61D3
:106A70000F4A1268DA610F4A12681A840E4A1268C5
:106A80005A840E4A12689A840D4A1268DA84704752
:106A90001800005000920000E4000050E800005090
:106AA000EC000050F0000050F4000050680100506D
:106AB0006C01005028000050340100506401005067
:106AC0008001005010B5F9F715FF10BD154B0338C4
:106AD00010B51860FAF772FC002804D04021124A61
:106AE00013688B431360114B114C1888F9F74AFF58
:106AF000F82380029B040440184205D000220D4B6D
:106B0000110001201B6898470B4B0C4A234313606C
:106B100007230B4A11680B43136006F041FEFFF791
:106B200091FF10BD3400005018000050A027041839
:106B300000FCFF0354060000010020003C00005050
:106B4000300000502A4AF0B516889446F2430400FB
:106B50000021284B85B000AF1B783A60CDB2AB4224
:106B60000ED9796078683A68013102410120024209
:106B7000F4D00200796825708A40614632430A8069
:106B80006A46FB730733DB08DB00D31A9D460F23ED
:106B90006A464F20F9186E4601F0FAF8002822D113
:106BA000144AFB7B1278AA4218D19D4204D03122AC
:106BB0001149124808F032FB357830002570FC7B13
:106BC000711C013C2200FDF752F935553200F97B6A
:106BD0004F2001F04FF9BD4605B0F0BD2278F254C8
:106BE0000133FB73F2E70123FB7323783370EDE786
:106BF0000A930000E0920000BC290418D52904186B
:106C0000F0B506000F00150097B0002934D03F22E0
:106C1000437900249343402B12D1184B0100393A99
:106C200017481D60FDF71AF901F070FA17B0F0BDB2
:106C3000144B01221B882341134207D10134E4B2D3
:106C4000114B1B78A342F3D8FF2013E0200001A9C9
:106C500000F03CF852236B441B78BB42EED131006C
:106C600013A8FFF7C3FD0028E8D0074B20001B78CE
:106C7000A342E9D9A847D9E70C00E1E70493000053
:106C8000FC9200000A930000E0920000002210B580
:106C9000034B18781A70034B1B68984710BDC04609
:106CA000089300000493000010B5472805D1034A5B
:106CB00013780133137001F029FA10BD0893000016
:106CC000014B18707047C046E092000007B56B4654
:106CD0000A00D91D52237030C0B20B7001F058F871
:106CE0000EBD07B56B460A00D91D01236030C0B246
:106CF0000B7001F04DF80EBD07B56B460A00D91DAB
:106D000006235030C0B20B7001F042F80EBD10B532
:106D100070300A005221C0B201F0ACF810BD002062
:106D200070470020704710B5042109F027FA10BD04
:106D300010B50400D7F706FE01002000062210302F
:106D4000FDF78CF8D7F7C8FDA075D7F7F5FD102231
:106D500001002000FDF782F810BD10B51C22FDF7E0
:106D60007DF810BD00290DD00B7803704B7843706F
:106D70008B788370CB78C3700B7903714B79437137
:106D800000238371704710B51022FDF767F810BD1E
:106D9000F0B5314E0821330061331B7899B01B02E6
:106DA00019430500342303222C48FAF753FC03AFA0
:106DB0000400FF2D34D039002800FFF787FF00289A
:106DC0000FD15B236B441A78230028331A700322F7
:106DD00017AB1B781340033B5A42534122002A321F
:106DE000137069462800FFF77CFF002809D16B4625
:106DF00002221B781A40DB07DB0F134322002932E3
:106E00001370280001A9FFF777FF002808D16B460F
:106E10009B88A3856B46DB88E3856B461B892386AD
:106E20002000FAF73BFC330061331A7871680020C8
:106E30008D5432005A32128839003A8032005C3266
:106E400012887A8032005E321288BD71BA801A7858
:106E50003368984719B0F0BD60920000020E000040
:106E600010B500F029F8002010BD10B548680B6877
:106E70009847002010BD000010B5044B0449187855
:106E80000A30C0B2FAF71EFF10BDC046020600006D
:106E90007C290418044B10B50400186807F0EEFFB5
:106EA000002800D0046010BD2C920000014B186037
:106EB0007047C0462C920000064B0138C1B210B595
:106EC000186808F022F80368DA0701D54068984787
:106ED00010BDC0462C9200000A4B70B504000D0096
:106EE00042600100186808F017F8074B0130197864
:106EF0002A000A31C0B2FAF771FA0123226813435B
:106F0000236070BD2C920000020600000020704734
:106F10000020704700207047002070470020704715
:106F2000002070470278014B1A70704730920000C1
:106F300013B543780400032B0BD80A4AD05C6A4689
:106F4000237801A91371A3785371074B1B689847E5
:106F500013BD7E2205480649FF3208F05FF9002084
:106F6000EDE7C0466529041848920000042A041879
:106F7000042B041813B56030C0B20C0003280BD8E2
:106F8000094B185C6A46094B54711B7801A91371AF
:106F9000074B1B68984713BD0648074A074908F086
:106FA0003DF90020EEE7C0466C290418309200003D
:106FB00048920000042A041847020000042B041819
:106FC00007B56A46044B50711B780E201371034BB2
:106FD00001A91B68984707BD449200004892000031
:106FE0001FB503006A461A330093831C0193037A8A
:106FF00069469372038B1381437CD37243780F20CD
:107000001373024B1B68984705B000BD48920000FF
:1070100013B5838801AC23800388C62B24D00BD8FA
:10702000242B1FD0262B1BD0142B0DD00F4A104918
:10703000104808F0F3F809E0C82B0DD0FD2B0DD057
:10704000C72BF3D1022300E00023A3700A4B2100D9
:1070500002201B68984713BD0123F6E70323F4E7DA
:107060000423F2E70523F0E70623EEE76E020000B3
:10707000042B0418042A04184892000010B50028B4
:1070800004D061220449054808F0C8F80021044BE7
:1070900008001B68984710BD042B0418062A041822
:1070A0004892000007B56A4603780130137083796F
:1070B00069465370024B01901B681020984707BD2A
:1070C0004892000037B5002805D0C7221549164858
:1070D000520008F0A3F8154DEB7A002B14D00433BE
:1070E000032207211248FAF7B5FAEA7A040042802F
:1070F00069680430FCF7B2FEAA232370AB7B200042
:107100006370FAF7CBFA37BDEB7BA87B002B02D17B
:1071100000F04AFCF7E7074B01A908701B6809203B
:107120009847F0E7042B0418062A0418349200004C
:10713000A60D00004892000010B5002804D0672278
:107140000449054808F06AF8044B002101201B6837
:10715000984710BD042B0418062A04184892000012
:1071600007B5074B987BDB7B002B02D100F01CFCA2
:1071700007BD044B01A908701B6809209847F7E771
:10718000349200004892000007B5114801A906F0AA
:107190009FFF002805D184220E490F48920008F075
:1071A0003DF86B465B79022B0AD80C4AD05C6B46E3
:1071B0006A461B7969461370094B1B68984707BDDF
:1071C0000848094A034908F029F80020EFE7C046BB
:1071D0004C920000042B04181D2B04186929041874
:1071E00048920000042A04181E02000070470000A4
:1071F00007B56A46038801A99380837803209371B9
:10720000014B1B68984707BD4892000010B5044B1E
:107210000522186003490223034809F06AFD10BDE6
:1072200048920000E89100004C92000037B53423EA
:107230000721032205002648FAF70CFA254B020025
:107240000380E1239B0043806B46991D10230400BB
:107250000A3204200B7000F09BFD002804D03E226F
:107260001D491E4807F0DAFF6B46D91D0623012091
:10727000221D0B7000F08CFD002804D0412216491D
:10728000174807F0CBFF2B78002B03D00123A27EF9
:107290001343A3766B78002B03D00423A27E134301
:1072A000A376FB22032362840E4AE376A2840E4A6D
:1072B00000232285E28422002A32A383E3832384ED
:1072C00020001370A385E385FAF7E8F937BDC046BF
:1072D000040D0000030F0000042B0418212A0418D9
:1072E000362A0418480800000702000000207047F2
:1072F0000020704700207047002070470020704732
:1073000070B5084B05000C00FE2019780823FF22F9
:1073100098400A31FAF79EF905604460FAF7BEF921
:1073200070BDC04602060000F8B5040000780D00EC
:107330000238052830D8FCF765FD03302F3F34674D
:10734000A378494C2200573213701B070FD5230036
:1073500020000833243046C846C346C846C30268E6
:107360001A6022000123583211780B4313706368AE
:1073700058195B5DFF2B01D1FFF7E4FB2100636827
:107380000831585DFFF7C3FC00F09CFD2A00012086
:107390005734217800F09AFDF8BD2A000020A1782A
:1073A000F8E7324B01201B6831499847314B1021D7
:1073B0001B68A01C9847EFE72C4F01203B682E4923
:1073C00098472C4DA61C30002B681021984712348A
:1073D0003B6801202949984720002B6806219847DF
:1073E000214D04232A0028005832117840300B43E5
:1073F000137031001022FCF731FD28000722210014
:107400005030FCF72BFDC7E7184D01201C492B68B5
:107410009847184FA61C102130003B689847012060
:1074200018492B689847200002213B681230984782
:10743000012015492B689847200008213B6814302B
:107440009847227F2B68012010499847064C1C2240
:10745000200031002430FCF701FD0223583422784B
:107460001343237098E7C04660920000FC050000BB
:107470006D2A0418F80500005E2A04188C2A0418E6
:107480007D2A04189E2A04184C2A0418AE2A0418CF
:10749000F0B5050000780C0087B00A281AD8FCF770
:1074A000B1FC061919193D7C821B197488004D4BDB
:1074B0001A0060321278FF2A07D16A7804A90A708C
:1074C000042022001B68984704E0002220001100DD
:1074D00000F0FAF907B0F0BD424E0121320037004A
:1074E0005832137808370B4338000331137008F013
:1074F00045FE3D4B1B6898473083300002211A300F
:1075000008F03CFE6B780336F377384B012200938A
:1075100007213B00200000F0FDF9DBE76B78012B31
:1075200009D0022B24D0002B28D12E4B0A000C208E
:107530001B6804A9C7E72C4B1B6898472C49CAF75E
:107540006FFD2C4D0A00039104A8290005F06CF88A
:10755000244B22001B6804A909209847290003AA8C
:1075600004A8FDF769FE2000039900F0C9FCB1E70B
:107570001C4B0A000A201B6804A9A4E78E221E499E
:107580001E48FF3207F04AFEA4E7164B01350A00F9
:107590000D201B68049504A995E7194B012200935F
:1075A00005210023B6E7174B012200930621002393
:1075B000B0E70422691C03A8FCF750FC039A0D49AC
:1075C00004A805F031F8C0B2062805D0A4220A4963
:1075D0000D48FF3207F022FE024B22000B201B68F1
:1075E00004A970E760920000100700005B6D0318AB
:1075F00040420F00D62A0418EB2A0418C42A0418A3
:10760000316D0318276D0318C62A0418037807B5CF
:107610000A000B2B0DD141780B00223BDBB2022B71
:1076200008D80849CB5C01A90B70074B07201B68E1
:10763000984707BD0B1C902901D2044B1B7870336F
:10764000DBB2F0E76229041860920000DC2A04181B
:107650000A4B10B51A00613211701A0041885A3273
:1076600011801A0081885C321180C2885E331A80D2
:10767000417A034A0A30FFF7C3FA10BD6092000056
:10768000916D031807B583780A0001A90B70024BAE
:1076900001201B68984707BD6092000007B503787A
:1076A0000A0001A90B70024B08201B68984707BD10
:1076B000609200000823F0B50D0099B00902019016
:1076C000194303220A331D48F9F7C4FF1C4E040076
:1076D00073680027585DFF2820D003A9FFF7F6FA4A
:1076E000012217AB1B78134218D002AB9A8A019B78
:1076F0001B889A4212D11621019802AB082202304F
:10770000C918FCF79DFBB84208D11022601C03A9E0
:10771000FCF7A4FB02AB9B7F01376374200027704A
:10772000F9F7BCFF002F06D1062303A90B702A002E
:1077300007203368984719B0F0BDC046180E000006
:107740006092000073B506780D00012E2DD0022E38
:107750003ED0002E28D16B461E80294B0A001B68A4
:1077600069460E2098476B461B88002B04D1254B99
:107770006A4601930E2313806B4608211B882D0255
:107780000A3303229BB229431F48F9F763FF002302
:1077900003706B461A880400428001990430FCF79C
:1077A0005DFB2000F9F77AFF73BD0B02082103226D
:1077B000194315480A23F9F74DFF002304004380BD
:1077C000811C2A000F200E4B1B6898472670E8E7A3
:1077D0000B020821032219430B480A23F9F73AFF49
:1077E00006234380183383800023C3802D33FF3367
:1077F0000381034B0400811C2A0010201B68E4E76E
:1078000060920000DD2A04180B0E000007B5037813
:107810000A0001A90B70024B11201B68984707BD95
:107820006092000007B50A00694603780B7143783F
:1078300012204B71024B01A91B68984707BDC04637
:107840006092000030B585B06B46DD1D01230C0051
:107850002B700B4B0A000290039502A902201B68B3
:1078600098472102E1200824062303222143000136
:107870002D78F9F7EFFE0570F9F710FF05B030BD70
:107880006092000010B5034B0A0001001B68032042
:10789000984710BD6092000007B503780A0001A95F
:1078A0000B70024B05201B68984707BD60920000D3
:1078B00010B50C000121D2F701F9072201002000C8
:1078C000FCF7CCFA10BD000037B51300094A0D00D3
:1078D00000920A000121040000F01CF8002D07D0DE
:1078E000054920000B00503160331C70FFF7E0FFAA
:1078F00037BDC046656D03186092000007B5044AA5
:107900000B0000920421012200F004F807BDC046DC
:10791000876D0318F8B50F000821000216001D003E
:107920000322014322230748F9F794FE04002900AB
:1079300007704670069B023098472000F9F7AEFEAC
:10794000F8BDC046140E0000F0B585B00500160065
:107950001F0003223A2301910F480721F9F77AFE0D
:10796000A42304000370390045700230B0472000A2
:10797000F9F794FE019A02AB084803A91D715A71E8
:1079800006F0CFFB002805D1A02205490548FF32AB
:1079900007F044FC05B0F0BDA10D00004C920000C2
:1079A000042B04181D2B0418002310B51900024ADB
:1079B000FFF7CAFF10BDC0468D63031806230902F6
:1079C00010B51943048803220448F9F743FE002345
:1079D000048043800371F9F761FE10BD180C0000AC
:1079E0007FB5030000780A000238112814D8FCF78C
:1079F00009FA333333333333131313131F29131398
:107A0000131309156846598881805B7801A9837131
:107A10000220164B1B68984707B000BD684659887E
:107A200081805B7801A98371104B03201B68F2E70A
:107A30006846598881805B7801A983710B4B0B20C4
:107A40001B68E8E76846598881805B7801A98371E3
:107A5000064B0C201B68DEE76846598881805B78FE
:107A600001A98371014B0D201B68D4E7C49200006B
:107A700030B587B06A4603880400138180780D0012
:107A800000F0EEF86B469872044B03342A0009208C
:107A90001B68019401A9984707B030BDC49200004B
:107AA00070B5038886B001ADAB8043880400EB80DD
:107AB00003790E002B72407900F0D2F8054B0634A2
:107AC00068723200290008201B680194984706B0AC
:107AD00070BDC046C492000070B586B0438801AD49
:107AE000AB8083880400EB8080790E0000F0B8F84A
:107AF000054B0734A8723200290007201B68019447
:107B0000984706B070BDC046C492000070B50388A7
:107B100086B001ADAB8043880400EB8000790E0095
:107B200000F09EF8054B053428723200290006202B
:107B30001B680194984706B070BDC046C49200000F
:107B400010B586B06A4683880C0093804388D38042
:107B5000831D02930378122B04D060220549064846
:107B600007F05CFB054B220004201B6801A9984725
:107B700006B010BD622B0418242B0418C492000018
:107B800010B586B06A4683880C0093804388D38002
:107B9000831D02930378132B04D05622054906480F
:107BA00007F03CFB054B220005201B6801A9984704
:107BB00006B010BD622B0418422B0418C4920000BA
:107BC0007FB503880A0001A90B80034B0E201B68B8
:107BD000984707B000BDC046C49200007FB5038837
:107BE0000A0001A98B804388CB80838806300B81F3
:107BF000034B01901B680A20984707B000BDC046A0
:107C0000C492000010B503000088024A00F00EF88C
:107C100010BDC0468D83031810B503000088024ACA
:107C200000F004F810BDC046A983031870B5150014
:107C30000E001900094B0400186800280BD0828838
:107C4000944209D983799B189C4205DC013CA21A15
:107C50003300D2B2A84770BD0068EEE7C8920000BA
:107C600003000120042B03D0103B5A42534158001B
:107C700070470020704700207047002070470020A8
:107C80007047002070470020704700207047002098
:107C900070470000002310B50400036243621B4BD1
:107CA0008AB0436108F04FFE23002C33187008F0AF
:107CB00048FE23002D331870154BA362154B23602B
:107CC000154B6360154BE361154BA361FEF7D4FDC3
:107CD00025236A461370243B69465A1ECA54013351
:107CE0000C2BF9D11A330B73193B69469A1ECA54EF
:107CF0000133272BF9D1802102AAD37768462822A5
:107D00004900F8F72DFD0AB010BDC0461909041846
:107D1000CD6A0318D108041839060418D5080418C8
:107D20001109041800207047002070470020704798
:107D30000020704710B50420F8F7A2FFF8F774FE92
:107D4000023843425841C0B210BD000010B5041EB5
:107D50000DD153220A490B4807F060FA0A4BA1B231
:107D6000186809F07BF8431E9841C0B207E012285A
:107D7000F4D801238340054A05201342EED010BDFC
:107D80007C2B0418952B0418DC92000080E0060080
:107D9000F7B505000E001400002813D11A222A4955
:107DA0002A4807F03BFA6A4633782948D3806B4665
:107DB00022000068A9B2063309F0D2FA00283ED0AA
:107DC000012020E007282FD01ED80128EBD10B7806
:107DD000052B20D906276B460F7001001C48DB19C4
:107DE00000681F8009F0BCFA00280CD03A0021007E
:107DF000302006F003FCE3192278FF2A0DD101346C
:107E00009C42F9D12800FEBD112808D01228CAD101
:107E10000123137006E00425F4E70025F2E706F0DD
:107E2000C3F920700020EEE70B780420012BEAD97B
:107E300002230B70F2331370F33B5370F2E76B467F
:107E4000DB883370DFE7C0467C2B0418952B0418C1
:107E5000DC92000010B5044B044A1968044809F08C
:107E600021F9002010BDC04640160000FEFF0000B2
:107E7000DC92000070B504000E00150000280FD140
:107E80006C220C490C4807F0C9F90C48B3B22A001F
:107E90000068A1B209F0B0FA431E9841C0B207E0F1
:107EA0001228F2D801238340054A05201342ECD062
:107EB00070BDC0467C2B0418952B0418DC92000082
:107EC00080E0060010B509F0E3FA10BD094B73B568
:107ED0001D00072658352C78B4432C701C00FF2554
:107EE000603425706C461B6820716171062001A901
:107EF000984773BD609200000020704700207047D3
:107F000030B504000D0087B00C22019103A80021B8
:107F1000FBF7C0FF200002A90295FFF7EFFC07B0B6
:107F200030BD00207047002070470000014B024A1E
:107F30001A607047A00100003D7F0318C3B210B55E
:107F4000462B21D80020132B29D9153B1800312BA3
:107F500030D8FBF757FF334E51484B2C2936394266
:107F6000453C3F5457C35AC15D6066636C69726F8C
:107F700084818A8778757E7B8D909396999CA5A83D
:107F80009FA2ABAEB1B4B7BAC82B00D1A0E007D85E
:107F9000C62B00D1A4E0C72B00D19BE0002010BD70
:107FA000FD2BFBD14F4B06E0FFF771FEF7E7FFF724
:107FB0006CFEF4E74C4B1B689847F0E7FFF796F927
:107FC000EDE7FEF7AEFEEAE7FEF7A9FEE7E700F011
:107FD00019FAE4E700F014FAE1E7FFF754FEDEE7F0
:107FE000FFF74FFEDBE7FFF787F9D8E7FFF786F9E2
:107FF000D5E700F086F8D2E700F085F8CFE700F08B
:10800000D7F8CCE700F0D2F8C9E7FEF7E9FBC6E7FE
:10801000FFF733FEC3E7FFF732FEC0E7FFF729FEA5
:10802000BDE7FFF728FEBAE700F0BCF8B7E700F0BD
:10803000BBF8B4E7FEF772FFB1E7FEF771FFAEE7FA
:10804000FEF768FFABE7FEF767FFA8E7FFF76EFEF6
:10805000A5E7FFF76DFEA2E7FEF7A0F99FE7FEF7A1
:108060009FF99CE7FFF748FF99E7FFF747FF96E77F
:10807000FFF75AFE93E7FFF755FE90E7FFF73AF94F
:108080008DE7FFF735F98AE700F0C8F987E700F0D8
:10809000C3F984E7FEF7A8FB81E7FEF7A3FB7EE7C1
:1080A00000F0B4F97BE700F0AFF978E700F0B2F93F
:1080B00075E700F0ADF972E7FFF735FF6FE7FFF7FF
:1080C00030FF6CE7FEF724FF69E7FEF71FFF66E766
:1080D000064B70E7064B6EE7064B6CE7064B6AE70C
:1080E000064B68E75C92000058920000D8920000AE
:1080F000D4920000D0920000FC910000F4910000A6
:1081000070470020704700207047000000220121C6
:10811000F0B51E4B1E4C1F781E4B97B01E8823785F
:10812000D8B287422BD935001D4101330D4224D0EE
:10813000002A00D0207001A9FEF7C8FD15AB1B78FE
:108140005B071CD51823032207211348F9F782FA8D
:10815000172304000370163B437006220F490230B8
:10816000FBF77CFE2000102208300FA9FBF776FEFB
:108170002000F9F793FA17B0F0BD0A00D0E700230A
:108180002370074BFF201B689847F4E7E09200003C
:10819000089300000A930000140D0000FC920000F8
:1081A00004930000002070470020704700207047B3
:1081B0000020704700B5734608F0C0FC00BD000009
:1081C000F0B5354C354D2560354C364D2560364C77
:1081D000364D2560364C374D2560374C374D256080
:1081E000374C384D2560384C384D2560384C394D6A
:1081F0002560394C394D2560394C3A4D25603A4C53
:108200003A4D25603A4C3B4D25603B4C3B4D25603B
:108210003B4C3C4D25603C4C3C4D25603C4C3D4D21
:1082200025603D4C3D4D25603D4C3E4D25603E4C0E
:108230003E4D25603E4C3F4D25603F4D3F4C2560F7
:108240003F4C404D404E2560404C414D2560414CD7
:10825000414D2560414C424D2560424C424D2560C8
:10826000424D434C25608408A7007F1937608E0873
:108270003619404FB40064193C609408A419A40056
:1082800064193D4D2C603D4C20603D4801603D49E6
:108290000A603D4A1360F0BD40010000F416000082
:1082A0004401000000170000F0000000F816000074
:1082B00048010000883F00009C010000743F00005E
:1082C000F400000001170000DC000000FC160000B4
:1082D000E00000000217000054030000F04000001E
:1082E00058030000484100004C03000020410000FA
:1082F00050030000904100008C040000C43F0000C7
:10830000900400000917000094040000F2410000EE
:1083100090050000D03F0000B0050000DC3F0000E9
:1083200098050000E83F0000A4050000F43F0000AD
:1083300084030000FC410000004000007C030000BA
:1083400080030000C0410000BC050000B401000033
:1083500003170000D40100000617000030030000DE
:10836000D8400000AC060000943F0000244200000A
:10837000C0050000C4050000C8050000EC050000B1
:10838000E8050000F0050000F405000010B586B017
:1083900001A90A71034A0190146800201A00A0473D
:1083A00006B010BDC492000070B586B01C006B46CC
:1083B0000D00DE1C00233370AB1D01900396029369
:1083C0006B8801A98B81AB880120CB810A4B0A7491
:1083D0001B6822009847210206240423032221431C
:1083E00006482D883678F9F735F905808670F9F753
:1083F00055F906B070BDC046C4920000160C0000CE
:108400000020704700207047002070470020704710
:108410000020704700207047002070470020704700
:1084200003B40148019001BD1913000003B40148D1
:10843000019001BD2513000003B40148019001BD66
:10844000F107000003B40148019001BD9508000048
:1084500003B40148019001BD4F09000003B4014875
:10846000019001BDF508000003B40148019001BD71
:108470001909000003B40148019001BD230900005F
:1084800003B40148019001BDED09000003B40148A7
:10849000019001BDD909000003B40148019001BD5C
:1084A000C509000003B40148019001BDD1090000D5
:1084B00003B40148019001BD5109000003B4014813
:1084C000019001BDFD12000003B40148019001BDFF
:1084D000BF0A0000F8B50446002502262068C068DF
:1084E000C007C00F01214840484000281BD0206829
:1084F000C06888432168C860FFF792FF05460020E6
:1085000023460A4A314600902846FFF78FFF00288D
:1085100009D0E06B10210843E063206C012108437F
:1085200020640520F8BD0020FCE70000E5D1031819
:10853000F8B504460026002502272068C068C00759
:10854000C00F012148404840002825D12068C0685C
:1085500008432168C860402500E06D1E002DFCD155
:10856000FFF75EFF0646012023460C4A394600907D
:108570003046FFF75BFF00280ED0E06B1021084368
:10858000E063206C01210843206400BF00213820F3
:10859000015500BF0520F8BD0020FCE7E5D1031818
:1085A00010B50248006802F0B9FB10BD4416000087
:1085B00010B50249086903F002FA10BD283F000017
:1085C00010B5FEF7A7F906F0DFFF04F0F5FE002076
:1085D00004F078FF00F002F810BD00000D20002824
:1085E00009DBC206D20E01219140044A1160BFF39B
:1085F0004F8FBFF36F8F00BF7047000080E100E036
:108600001B48006840218843082108431849086036
:10861000084640680321890588431549486000BF22
:108620000A4650680123DB0502469A431A43114665
:108630000F4A516000BF00BF0D48406B0121490443
:108640000840400C0028F7D00948806B3F210906FC
:108650000840000E0749487000BF054A50680123D2
:10866000DB0502469A431146014A516000BF70473C
:10867000007400408116000010B50249086803F03C
:108680009EF910BD283F0000F1B584B00020029093
:108690000121049802F09AFA80B202900298FCF745
:1086A000C9FE06460022524BFCF7E4FD0022514B66
:1086B00001910090FCF746FE0446FCF7C9FE4E49C6
:1086C00048800221049802F081FA80B20290029858
:1086D000FCF7B0FE04460022454BFCF7CBFD002220
:1086E000444B01910090FCF72DFE0646FCF7B0FECE
:1086F000414988804148007A01280FD10846808886
:108700003F4988420ADA3D48C07C002809D101204F
:108710003A49C87400203B49888202E0002037496A
:10872000C8743548407AFF281CD033484088FF2160
:10873000F531884203DA08202F49487212E02E48AA
:108740004088E121C900884209DA2B484088FF218E
:10875000F531884203DD10202749487202E0EF20FE
:10876000254948722548007A01283BD12248408893
:10877000FF21F531884202DA09F074FB32E01E482D
:108780004088E121C900884208DA1B484088FF215F
:10879000F531884202DD09F0E7FA23E01648408807
:1087A00017496431884208DA13484088E121C9003A
:1087B000884202DD09F002FB14E00F484088AF2137
:1087C0000901884208DA0C4840880D496431884222
:1087D00002DD09F01DFB05E00748007AFF2801D003
:1087E00009F09AFA0849C868804705B0F0BD000052
:1087F00000C8A94000FEAF409813000040170000D9
:1088000098080000203C0000E415000000B587B087
:10881000012006F0B5F8012006F0A2F807F073FB7E
:10882000002006F0ADF8002006F09AF807F066FB8D
:1088300020482149086000204860FF2101311E487E
:1088400081600221016100210175816101730121B3
:108850008905C161002101620521816202F002FBEC
:10886000182101A8FCF7D3FC0520019001200290FB
:108870000320039000200490022005900021684608
:108880000176417601A90C4801F0BAFF042001905D
:10889000022002900320039001A9074801F0B0FFD5
:1088A000202006F010FA012802D1022006F01BFA5F
:1088B00007B000BD002401405817000010B5024861
:1088C000FEF7A4FC10BD0000E9D7031810B502F0B4
:1088D000D3FC10BD10B50520C00302F0B1FC10BDE3
:1088E00010B50C48007A012812D100F017F80A4997
:1088F000088008460021415E002902DD00F06CF886
:1089000006E005480021415E002901DA00F054F834
:1089100010BD000040170000BC13000000210848F3
:108920000068406B01B20020054A12685063FA29C2
:1089300001DA084670470846FF38F53800B2F9E713
:108940009C17000000B589B0002211460B2007F0EB
:10895000E5FA002211460C2007F0F4FA0120800706
:108960001449086000204860002112488160FF21FE
:10897000F431C1600021016181610120009000207B
:10898000019001200290002003900F20049000200D
:10899000059001200690002007900F20089069465E
:1089A000044802F035FD3C21024802F09FFF09B067
:1089B00000BD00009C17000038B50021684601701A
:1089C0000321417003486B460222862144680B2034
:1089D000A04738BD1C16000038B50021684601705C
:1089E000FD21417003486B460222862144680B201A
:1089F000A04738BD1C160000F8B504460D461646C3
:108A00001F463B46324629462046FDF7CBFCF8BDC3
:108A100010B518484078012815D102201549087072
:108A20001548037801220020FFF7E6FF00201149D6
:108A300008701148037801220020FFF7DDFF0020B5
:108A40000C49487014E001200A4908700A4803786C
:108A500001220020FFF7D0FF0020064908700648D9
:108A6000037801220020FFF7C7FF01200149487069
:108A700010BD000004160000B413000010B5044639
:108A800060480078012839D15E48C088C82830DBAA
:108A900000205C49C88008464078002809D0084674
:108AA000408849784018574948800020888048709D
:108AB00024E0082006F007F9002813D151488088E7
:108AC000C8305049888000204880084680887D2131
:108AD000C900884212DB00204A490870084609F0A4
:108AE0003BF80BE0002047490870084609F034F8CD
:108AF00004E04448C08832304249C8804248007887
:108B0000012839D14048C088C82830DB00203E49C0
:108B1000C88008464078002809D00846408849782F
:108B200040183949488000208880487024E021207E
:108B300006F0C9F8002813D133488088C83032497C
:108B4000888000204880084680887D21C9008842AE
:108B500012DB00202C490870084609F05DF80BE094
:108B6000002029490870084609F056F804E0264814
:108B7000C08832302449C88024480078012836D182
:108B80002248C088C8282DDB00202049C88008461C
:108B90004078002809D008464088497840181B4989
:108BA000488000208880487021E0062006F08BF87D
:108BB000002810D115488088C830144988800020CA
:108BC000488008468088C82811DB002008700846C5
:108BD00008F004FF0BE000200C490870084608F07C
:108BE000FDFE04E00948C08832300849C8800849C1
:108BF000886880470022322106480068FEF76CF939
:108C000010BD0000CC130000D4130000DC130000E2
:108C1000BC130000C813000070B504460D4654484C
:108C2000407A012878D15248007D0028FAD1062CDC
:108C300051D004DC032C78D0042C13D185E0082C0F
:108C400002D0212CF9D12AE049484078012805D1E9
:108C50004748807A002801D108F0A2FE4448007AF3
:108C6000002800D181E043480078002808D108207E
:108C700006F029F8002803D101203E4908700DE0D4
:108C80003C480078012809D1082006F01CF801288A
:108C900004D138484078401C3649487065E0364871
:108CA0000078002808D1212006F00DF8002803D113
:108CB0000120314908700DE02F480078012809D1C2
:108CC000212006F000F8012804D12B484078401CF0
:108CD0002949487049E02648007A002800D144E03C
:108CE00026480078002808D1062005F0ECFF00286F
:108CF00003D101202149087016E02048007801289E
:108D00000CD1062005F0DFFF012807D11B48407871
:108D1000401C1A49487007E028E006E01448C07873
:108D2000022801D108F0AEFF1FE01148007A0028A8
:108D300000D11AE0032005F0C6FF002802D108F098
:108D40001FFE01E008F00CFE0FE00948007A002841
:108D500000D10AE0042005F0B6FF002802D109F096
:108D60008DFA01E008F0FCFD00BF00BF70BD0000FF
:108D700040170000CC130000D4130000DC130000E7
:108D800010B5212005F0D4FD0321212005F01AFEA5
:108D9000082005F0CDFD0121082005F07DFF03210D
:108DA000082005F00FFE062005F0C2FD0321062075
:108DB00005F008FE042005F0BBFD0121042005F0AC
:108DC0006BFF0321042005F0FDFD032005F0B0FD3D
:108DD0000121032005F060FF0321084605F0F2FDA4
:108DE00010BD000010B500200A4908700871087213
:108DF00008730021182005F0E5FF0021192005F077
:108E0000E1FF00211A2005F0DDFF00211B2005F005
:108E1000D9FF10BDF013000070B505460E4614468C
:108E2000012E2ED1002D06D0012D0DD0022D14D0F3
:108E3000032D24D11AE001202849087008464480F7
:108E40000020274908801BE00120244908710846BA
:108E5000C48000202249488012E001201F49087286
:108E60000846448100201E49888009E001201B49F2
:108E700008730846C48100201949C88000E000BF7B
:108E80002AE0002D06D0012D0CD0022D12D0032D8A
:108E900020D117E00020114908700021182005F0AA
:108EA00091FF18E000200D4908710021192005F0FC
:108EB00089FF10E000200949087200211A2005F0FE
:108EC00081FF08E000200549087300211B2005F000
:108ED00079FF00E000BF00BF70BD0000F01300008C
:108EE000203C000010B52048807B01283AD01E4865
:108EF000807C012806D1FFF775FF01211A2005F0BB
:108F000061FF27E01848C078002804D0012809D064
:108F100002281DD10DE0FFF765FF0121182005F0A3
:108F200051FF16E0FFF75EFF0121192005F04AFF0F
:108F30000FE0FFF757FF0121182005F043FF012143
:108F4000192005F03FFF01211A2005F03BFF00E04A
:108F500000BF00BF04488079012803D101211B20F4
:108F600005F030FF10BD00004017000010B5FFF7FE
:108F700039FF0121182005F025FF0021192005F0F7
:108F800021FF01211A2005F01DFF00211B2005F003
:108F900019FFFF22F53201210220FFF73DFF10BD2E
:108FA00010B5182005F0DCFC192005F0D9FC1A20BA
:108FB00005F0D6FC1B2005F0D3FC0021182005F09D
:108FC00001FF0021192005F0FDFE00211A2005F007
:108FD000F9FE00211B2005F0F5FE10BD10B52C4850
:108FE0000078012811D12B480088294949888842F6
:108FF00006DD182005F085FE00202649088004E0E3
:1090000024480088401C2349088021480079012811
:1090100011D1204840881E49C988884206DD1920A0
:1090200005F06FFE00201B49488004E01948408885
:10903000401C184948801648007A012811D115486B
:10904000808813494989884206DD1A2005F059FEB7
:1090500000201049888004E00E488088401C0D499B
:1090600088800B48007B012811D10A48C088084934
:10907000C989884206DD1B2005F043FE0020054912
:10908000C88004E00348C088401C0249C88010BD65
:10909000F0130000203C000010B502460B460020F3
:1090A000002104E0545C2418A0B24C1CA1B29942E7
:1090B000F8DB10BD70B504460D467820015B681CD6
:1090C000814222DD78231B5B5B1B5B1E06267343FC
:1090D0001A466B1C7343191933466B431819FCF776
:1090E0007DF800217820005B401E062250430019C5
:1090F00041807820005B401E504321527820005B65
:10910000401E5043001981800BE000210620684377
:109110000019418006206843215206206843001947
:1091200081807820005B401E81B27820015370BDA1
:10913000FEB505460C4600260027002001900120C0
:109140004D490872208848814C480221826C204693
:1091500090472088285C4849087048480121826C63
:10916000204690472088285C4349487043480121A5
:10917000826C2046904720882E5C40480121826CFA
:109180002046904720882F5C3002C0193A49488019
:109190003A480121826C2046904720882E5C37484F
:1091A0000121826C2046904720882F5C3002C01934
:1091B000314988800846808801218902884204DD7F
:1091C00000202D4908720120FEBD2C480121826C2F
:1091D000204690472088284988810846818827486A
:1091E000826C2046904720882E5C24480121826CA6
:1091F0002046904720882F5C3002C0191E49C88045
:1092000008468089898840180121890288421BDD2F
:1092100019488089081A80B200901749898948192D
:109220000099FFF739FF0199401880B20190124868
:1092300082880098101A81B22846FFF72DFF019905
:10924000401880B2019006E00B4A9188928950192B
:10925000FFF722FF01900848C1880198814204D09D
:109260000020054908720220AEE704480121826C03
:10927000204690470020A7E73A3C00001814000061
:1092800010B50446204600F08BF810BDF8B5044632
:109290000E4617467EE0002551E00620684300197F
:1092A0008088401C81B20620684300198180062016
:1092B000684300198088022804D007280DD00828A8
:1092C0001DD111E0E06F805D5A2805D0E9B220463B
:1092D000FFF7F0FE681E85B212E0E06F805D0102CC
:1092E00006206843215200BF06206843205AE16FE0
:1092F000895D401881B206206843215200BF00BF3B
:1093000000BF062068430019818806206843205A60
:109310000A30814211D106226A431219911CE06F72
:10932000FFF706FF002802D1E06FFFF7A9FFE9B2BF
:109330002046FFF7BFFE681E85B2681C85B2782004
:10934000005BA842A9DCE06F805DA52819D17820D8
:10935000005B0621484300198088401C81B27820B8
:10936000005B06225043001981807820005B0621B3
:109370004843001946807820005B401C81B2782069
:109380000153701C86B201208002864200D1002663
:10939000781E87B2002F00D07DE70020F8BD0000C6
:1093A00070B504460025434880880A3085B241489C
:1093B000407801284FD0032877D0042802D0052810
:1093C00074D120E03B4840883B4A811A904214D037
:1093D00008DC3A49401800280CD002280BD0042899
:1093E0000ED109E035482F300818002806D0022891
:1093F00006D104E005E004E003E002E001E000E063
:1094000000BF00BF53E02E48C088401901218902E7
:10941000884215DD2A4BDB880E46F31A99B2284B99
:10942000DB881819274BDA6B90472548C0883346EC
:10943000181A281A81B22348C26B2046904709E0C7
:109440001F4B1B7919460A311D4BDB8818191D4B20
:10945000DA6B90472BE01A48C08840190121890235
:10946000884215DD164BDB880E46F31A99B2144B71
:10947000DB881819134B5A6B90471148C088334644
:10948000181A281A81B20F48426B2046904709E00B
:109490000B4B1B7919460A31094BDB881819094B0C
:1094A0005A6B904703E000E000E000E000BF00BF1F
:1094B00070BD00003A3C00002D400000D9BFFFFF06
:1094C0004A3C00001814000038B504461348807860
:1094D000262821D111480089205C02280BD10421C3
:1094E00068460170012141706B46022284210B20E5
:1094F00000F0EEF910E009480089205C03280BD148
:10950000042168460170022141706B4602228421C9
:109510000B2000F0DDF900BF38BD00004A3C000020
:1095200010B502460B460020002104E0545C2418CC
:10953000E0B24C1CA1B29942F8DB10BD10B5044654
:109540003948807861280AD004DC182843D03128B3
:1095500067D130E0712851D0742862D15DE0324883
:109560000089401C205C800980013049487308460E
:10957000007A01281ED10846407B002802D0C0286E
:1095800016D10EE02948807C012803D1002027490C
:109590004874887400202549C8702549C8698047E7
:1095A00007E001202149C8702149C869804700E0CF
:1095B00000BF00BF36E01C480089205C012809D1AB
:1095C0001A48807C012805D0012018498874184960
:1095D000C869804726E014480089205C02280CD125
:1095E0001248C078022808D01048C0780F49087186
:1095F0000220C8700E49C869804713E001200B495A
:1096000008750B498869804701211A2005F0DAFBAB
:1096100001211B2005F0D6FB04E00020034908755A
:1096200000E000BF00BF10BD4A3C00004017000032
:10963000F013000070B504460D467820015B681CED
:10964000814222DD78231B5B5B1B5B1E0626734376
:109650001A466B1C7343191933466B431819FBF7F1
:10966000BDFD00217820005B401E062250430019FA
:1096700041807820005B401E504321527820005BDF
:10968000401E5043001981800BE0002106206843F2
:1096900000194180062068432152062068430019C2
:1096A00081807820005B401E81B27820015370BD1C
:1096B000F8B505460C4600270026012047494871A9
:1096C0002088C88046480121826C20469047208827
:1096D000285C42494870268841480121826C204616
:1096E00090472088285C3D4908703D480121826CE4
:1096F000204690472088285C3849887038480121E6
:10970000826C204690472088285C344908710846BE
:10971000007901218902884204DD00202F49487127
:109720000120F8BD2E480121826C204690472B482D
:1097300000792188695C884204D00020274948715B
:109740000120EEE726480121826C204690472348FD
:109750000079002802D02088204908811F4801791B
:109760001F48826C204690472088285C1B49C8709F
:10977000084600798019401D01218902884215DDC3
:109780000846801B80B20090A8190099FFF7C8FE18
:10979000C019C7B211480079401D009A801A81B2E1
:1097A0002846FFF7BDFEC019C7B206E00B4A127982
:1097B000511DA819FFF7B4FE07460848C078B84203
:1097C00004D00020054948710220AAE7044801217D
:1097D000826C204690470020A3E700004A3C00002E
:1097E0001814000010B504462046FFF7A7FE2046D7
:1097F000FFF76AFE204600F0C5F810BDF8B5044634
:109800000E46174660E0002533E006206843001945
:109810008088401C81B206206843001981800620A0
:10982000684300198088052805D1E06F815D062016
:10983000684321521BE006206843205AC01D0621C0
:10984000694309198988884211D106226A4312198D
:10985000911CE06FFFF72CFF002802D1E06FFFF7AB
:10986000C1FFE9B22046FFF7E5FE681E85B2681C1D
:1098700085B27820005BA842C7DCE06F805D552888
:1098800019D17820005B0621484300198088401CCC
:1098900081B27820005B0622504300198180782035
:1098A000005B06214843001946807820005B401C7D
:1098B00081B278200153701C86B20120800286425A
:1098C00000D10026781E87B2002F9CD10020F8BD61
:1098D000FFB5A3B0064615460024552001A908553A
:1098E000641C01A806552194641C04200855641CBE
:1098F00024980855641C01A80555641C0555641C72
:10990000002707E02698C05D01A90855601C84B2B5
:10991000781CC7B2AF42F5DB01AA21995018691D26
:10992000FFF7FEFD229001A922980855601C84B221
:109930000B2E11D006DC012E10D0022E0DD0032EDE
:1099400019D10CE00C2E10D00D2E14D10C4821464C
:10995000826B01A890470FE00EE000BF00BF0848EF
:109960002146426B01A8904706E005482146C26B9C
:1099700001A8904700E000BF00BF27B0F0BD000085
:1099800018140000F8B504460025A4480079C51D48
:10999000A2484078030002F094FE0E8CFEDAFD0827
:1099A000FCFCFCFCFCFCFB8BB3FC9C488078502846
:1099B00079D0512802D0C02877D175E09848407CF2
:1099C000012828D19648807C012824D19348008919
:1099D000C01D205C04281ED1904800890930205CFD
:1099E00001280CD101216846017041700F2181705E
:1099F0006B46032231210220FFF76AFF0BE0874804
:109A000000890930205C042805D18548007B0821A5
:109A10000843834908738248407801282ED17F4843
:109A20000089801C205C4006000F0A2811D17D4867
:109A3000002211464369022098477A498869804785
:109A40000121182005F0BEF901211A2005F0BAF90C
:109A500014E072480089801C205C4006000F0B282F
:109A60000CDB7048002211464369022098476D497B
:109A7000886980470121182005F0A4F9674800890A
:109A8000401D205C0007C00F6549C97A884207D095
:109A900062480089401D205C0007C00F6049C87201
:109AA00004E000E001E001E000E000BF00BFB3E03F
:109AB00000BF5A48C088401901218902884215DD3B
:109AC000564BDB880E46F31A99B2544BDB881819B3
:109AD000554BDA6B90475148C0883346181A281AFC
